{"contractName":"Admin","abi":[{"constant":true,"inputs":[{"name":"","type":"address"}],"name":"admins","outputs":[{"name":"","type":"bool"}],"payable":false,"stateMutability":"view","type":"function","signature":"0x429b62e5"},{"constant":true,"inputs":[],"name":"owner","outputs":[{"name":"","type":"address"}],"payable":false,"stateMutability":"view","type":"function","signature":"0x8da5cb5b"},{"constant":true,"inputs":[],"name":"platformWallet","outputs":[{"name":"","type":"address"}],"payable":false,"stateMutability":"view","type":"function","signature":"0xfa2af9da"},{"inputs":[],"payable":false,"stateMutability":"nonpayable","type":"constructor","signature":"constructor"},{"anonymous":false,"inputs":[{"indexed":false,"name":"wallet","type":"address"}],"name":"LogOnSetPlatformWallet","type":"event","signature":"0xaa9453d9836aa10c146f2a0aa7c35172b656f2c25f0fc962345326ea89a8e82e"},{"anonymous":false,"inputs":[{"indexed":true,"name":"_address","type":"address"}],"name":"LogAddAdmin","type":"event","signature":"0x6b752a74438d47bfe20cac17baf37ecb035071c961f1f9fc463d4f4baf78ce6a"},{"anonymous":false,"inputs":[{"indexed":true,"name":"_address","type":"address"}],"name":"LogRemoveAdmin","type":"event","signature":"0x78693bd77b9425cf4363f929f93dd7d744f9d7474b3de94b2895020cf56f4a01"},{"anonymous":false,"inputs":[{"indexed":true,"name":"owner","type":"address"}],"name":"LogNewOwner","type":"event","signature":"0x2c01bb1c7bf9abb56e25ed02c6383c02a0e2c55ebe8745734cc6f849c00b31e4"},{"constant":false,"inputs":[{"name":"_address","type":"address"}],"name":"addAdmin","outputs":[{"name":"","type":"bool"}],"payable":false,"stateMutability":"nonpayable","type":"function","signature":"0x70480275"},{"constant":false,"inputs":[{"name":"_address","type":"address"}],"name":"removeAdmin","outputs":[{"name":"","type":"bool"}],"payable":false,"stateMutability":"nonpayable","type":"function","signature":"0x1785f53c"},{"constant":false,"inputs":[{"name":"_platformWallet","type":"address"}],"name":"setPlatformWallet","outputs":[{"name":"","type":"bool"}],"payable":false,"stateMutability":"nonpayable","type":"function","signature":"0x8831e9cf"},{"constant":false,"inputs":[{"name":"_owner","type":"address"}],"name":"setOwner","outputs":[{"name":"","type":"bool"}],"payable":false,"stateMutability":"nonpayable","type":"function","signature":"0x13af4035"}],"bytecode":"0x608060405234801561001057600080fd5b5060008054600160a060020a03191633179081905561004090600160a060020a0316640100000000610046810204565b506100af565b60008054600160a060020a0316331461005e57600080fd5b600160a060020a038216600081815260026020526040808220805460ff19166001179055517f6b752a74438d47bfe20cac17baf37ecb035071c961f1f9fc463d4f4baf78ce6a9190a2506001919050565b610402806100be6000396000f3fe6080604052600436106100825763ffffffff7c010000000000000000000000000000000000000000000000000000000060003504166313af403581146100875780631785f53c146100ce578063429b62e51461010157806370480275146101345780638831e9cf146101675780638da5cb5b1461019a578063fa2af9da146101cb575b600080fd5b34801561009357600080fd5b506100ba600480360360208110156100aa57600080fd5b5035600160a060020a03166101e0565b604080519115158252519081900360200190f35b3480156100da57600080fd5b506100ba600480360360208110156100f157600080fd5b5035600160a060020a0316610256565b34801561010d57600080fd5b506100ba6004803603602081101561012457600080fd5b5035600160a060020a03166102bc565b34801561014057600080fd5b506100ba6004803603602081101561015757600080fd5b5035600160a060020a03166102d1565b34801561017357600080fd5b506100ba6004803603602081101561018a57600080fd5b5035600160a060020a031661033a565b3480156101a657600080fd5b506101af6103b8565b60408051600160a060020a039092168252519081900360200190f35b3480156101d757600080fd5b506101af6103c7565b60008054600160a060020a031633146101f857600080fd5b6000805473ffffffffffffffffffffffffffffffffffffffff1916600160a060020a03848116919091178083556040519116917f2c01bb1c7bf9abb56e25ed02c6383c02a0e2c55ebe8745734cc6f849c00b31e491a2506001919050565b60008054600160a060020a0316331461026e57600080fd5b600160a060020a038216600081815260026020526040808220805460ff19169055517f78693bd77b9425cf4363f929f93dd7d744f9d7474b3de94b2895020cf56f4a019190a2506001919050565b60026020526000908152604090205460ff1681565b60008054600160a060020a031633146102e957600080fd5b600160a060020a038216600081815260026020526040808220805460ff19166001179055517f6b752a74438d47bfe20cac17baf37ecb035071c961f1f9fc463d4f4baf78ce6a9190a2506001919050565b60008054600160a060020a0316331461035257600080fd5b60018054600160a060020a03841673ffffffffffffffffffffffffffffffffffffffff19909116811790915560408051918252517faa9453d9836aa10c146f2a0aa7c35172b656f2c25f0fc962345326ea89a8e82e9181900360200190a1506001919050565b600054600160a060020a031681565b600154600160a060020a03168156fea165627a7a723058200230493b95ca31ff8f6ee672886a18dd543416e1cc1cd84d9523338f074512ea0029","source":"pragma solidity 0.5.0;\n\nimport \"./interfaces/IAdmin.sol\";\n\ncontract Admin is\nIAdmin {\n\n    // Owner of the admin contract\n    address public owner;\n    // Platform wallet address\n    address public platformWallet;\n    // Admins mapping\n    mapping (address => bool) public admins;\n\n    // On set platform wallet event\n    event LogOnSetPlatformWallet(\n        address wallet\n    );\n    // On add admin event\n    event LogAddAdmin(\n        address indexed _address\n    );\n    // On remove admin event\n    event LogRemoveAdmin(\n        address indexed _address\n    );\n    // On new owner event\n    event LogNewOwner(\n        address indexed owner\n    );\n\n    constructor()\n    public {\n        owner = msg.sender;\n        addAdmin(owner);\n    }\n\n    /**\n    * Adds an admin to the market contract\n    * @param _address Address to add as admin\n    * @return whether admin was added\n    */\n    function addAdmin(\n        address _address\n    )\n    public\n    returns (bool) {\n        require(msg.sender == owner);\n        admins[_address] = true;\n        emit LogAddAdmin(_address);\n        return true;\n    }\n\n    /**\n    * Removes an admin from the market contract\n    * @param _address Address of admin\n    * @return whether admin was removed\n    */\n    function removeAdmin(\n        address _address\n    )\n    public\n    returns (bool) {\n        require(msg.sender == owner);\n        admins[_address] = false;\n        emit LogRemoveAdmin(_address);\n        return true;\n    }\n\n    /**\n    * Sets the platform wallet to send/receive payments\n    * @param _platformWallet Address of platform wallet\n    * @return whether platform wallet was set\n    */\n    function setPlatformWallet(\n        address _platformWallet\n    )\n    public\n    returns (bool) {\n        // Only the owner can set the platform wallet address\n        require(msg.sender == owner);\n        platformWallet = _platformWallet;\n        emit LogOnSetPlatformWallet(\n            _platformWallet\n        );\n        return true;\n    }\n\n    /**\n    * Allows owners to set new owners for the contract\n    * @param _owner Address of new owner\n    * @return whether owner was added\n    */\n    function setOwner(\n        address _owner\n    ) public returns (bool) {\n        // Only the owner can set a new owner\n        require(msg.sender == owner);\n        owner = _owner;\n        emit LogNewOwner(\n            owner\n        );\n        return true;\n    }\n\n}\n","sourcePath":"/home/zubietaroberto/work/playdbet-contracts/contracts/admin/Admin.sol","compiler":{"name":"solc","version":"0.5.0+commit.1d4f565a.Emscripten.clang"},"schemaVersion":"3.0.2","updatedAt":"2019-02-25T19:57:46.261Z","devdoc":{"methods":{"addAdmin(address)":{"params":{"_address":"Address to add as admin"},"return":"whether admin was added"},"removeAdmin(address)":{"params":{"_address":"Address of admin"},"return":"whether admin was removed"},"setOwner(address)":{"params":{"_owner":"Address of new owner"},"return":"whether owner was added"},"setPlatformWallet(address)":{"params":{"_platformWallet":"Address of platform wallet"},"return":"whether platform wallet was set"}}},"userdoc":{"methods":{"addAdmin(address)":{"notice":"Adds an admin to the market contract"},"removeAdmin(address)":{"notice":"Removes an admin from the market contract"},"setOwner(address)":{"notice":"Allows owners to set new owners for the contract"},"setPlatformWallet(address)":{"notice":"Sets the platform wallet to send/receive payments"}}},"chain_tags":{"0xa4":{"address":"0xd74313287364cA0fd80425d52c6c6B13538c0247"}}}