{
  "contractName": "Tournament",
  "abi": [
    {
      "constant": true,
      "inputs": [],
      "name": "tournamentCount",
      "outputs": [
        {
          "name": "",
          "type": "uint256"
        }
      ],
      "payable": false,
      "stateMutability": "view",
      "type": "function"
    },
    {
      "constant": true,
      "inputs": [],
      "name": "prizeTableCount",
      "outputs": [
        {
          "name": "",
          "type": "uint256"
        }
      ],
      "payable": false,
      "stateMutability": "view",
      "type": "function"
    },
    {
      "constant": true,
      "inputs": [],
      "name": "owner",
      "outputs": [
        {
          "name": "",
          "type": "address"
        }
      ],
      "payable": false,
      "stateMutability": "view",
      "type": "function"
    },
    {
      "constant": true,
      "inputs": [],
      "name": "admin",
      "outputs": [
        {
          "name": "",
          "type": "address"
        }
      ],
      "payable": false,
      "stateMutability": "view",
      "type": "function"
    },
    {
      "constant": true,
      "inputs": [],
      "name": "token",
      "outputs": [
        {
          "name": "",
          "type": "address"
        }
      ],
      "payable": false,
      "stateMutability": "view",
      "type": "function"
    },
    {
      "inputs": [
        {
          "name": "_admin",
          "type": "address"
        },
        {
          "name": "_token",
          "type": "address"
        }
      ],
      "payable": false,
      "stateMutability": "nonpayable",
      "type": "constructor"
    },
    {
      "anonymous": false,
      "inputs": [
        {
          "indexed": true,
          "name": "id",
          "type": "bytes32"
        },
        {
          "indexed": true,
          "name": "count",
          "type": "uint256"
        }
      ],
      "name": "LogNewPrizeTable",
      "type": "event"
    },
    {
      "anonymous": false,
      "inputs": [
        {
          "indexed": true,
          "name": "id",
          "type": "bytes32"
        },
        {
          "indexed": true,
          "name": "count",
          "type": "uint256"
        }
      ],
      "name": "LogNewTournament",
      "type": "event"
    },
    {
      "anonymous": false,
      "inputs": [
        {
          "indexed": true,
          "name": "id",
          "type": "bytes32"
        },
        {
          "indexed": true,
          "name": "participant",
          "type": "address"
        }
      ],
      "name": "LogEnteredTournament",
      "type": "event"
    },
    {
      "anonymous": false,
      "inputs": [
        {
          "indexed": true,
          "name": "id",
          "type": "bytes32"
        },
        {
          "indexed": true,
          "name": "status",
          "type": "uint8"
        }
      ],
      "name": "LogCompletedTournament",
      "type": "event"
    },
    {
      "anonymous": false,
      "inputs": [
        {
          "indexed": true,
          "name": "id",
          "type": "bytes32"
        },
        {
          "indexed": false,
          "name": "entryIndex",
          "type": "uint256"
        },
        {
          "indexed": false,
          "name": "finalStanding",
          "type": "uint256"
        },
        {
          "indexed": false,
          "name": "prize",
          "type": "uint256"
        }
      ],
      "name": "LogClaimedTournamentPrize",
      "type": "event"
    },
    {
      "anonymous": false,
      "inputs": [
        {
          "indexed": true,
          "name": "id",
          "type": "bytes32"
        },
        {
          "indexed": false,
          "name": "entryIndex",
          "type": "uint256"
        }
      ],
      "name": "LogRefundedTournamentEntry",
      "type": "event"
    },
    {
      "constant": false,
      "inputs": [
        {
          "name": "table",
          "type": "uint256[]"
        }
      ],
      "name": "createPrizeTable",
      "outputs": [
        {
          "name": "",
          "type": "bytes32"
        }
      ],
      "payable": false,
      "stateMutability": "nonpayable",
      "type": "function"
    },
    {
      "constant": false,
      "inputs": [
        {
          "name": "entryFee",
          "type": "uint256"
        },
        {
          "name": "entryLimit",
          "type": "uint256"
        },
        {
          "name": "minEntries",
          "type": "uint256"
        },
        {
          "name": "maxEntries",
          "type": "uint256"
        },
        {
          "name": "rakePercent",
          "type": "uint256"
        },
        {
          "name": "prizeTable",
          "type": "bytes32"
        }
      ],
      "name": "createTournament",
      "outputs": [
        {
          "name": "",
          "type": "bytes32"
        }
      ],
      "payable": false,
      "stateMutability": "nonpayable",
      "type": "function"
    },
    {
      "constant": false,
      "inputs": [
        {
          "name": "id",
          "type": "bytes32"
        }
      ],
      "name": "enterTournament",
      "outputs": [
        {
          "name": "",
          "type": "bool"
        }
      ],
      "payable": false,
      "stateMutability": "nonpayable",
      "type": "function"
    },
    {
      "constant": false,
      "inputs": [
        {
          "name": "id",
          "type": "bytes32"
        },
        {
          "name": "finalStandings",
          "type": "uint256[]"
        },
        {
          "name": "uniqueFinalStandings",
          "type": "uint256"
        }
      ],
      "name": "completeTournament",
      "outputs": [
        {
          "name": "",
          "type": "bool"
        }
      ],
      "payable": false,
      "stateMutability": "nonpayable",
      "type": "function"
    },
    {
      "constant": false,
      "inputs": [
        {
          "name": "id",
          "type": "bytes32"
        },
        {
          "name": "index",
          "type": "uint256"
        }
      ],
      "name": "claimTournamentPrize",
      "outputs": [
        {
          "name": "",
          "type": "bool"
        }
      ],
      "payable": false,
      "stateMutability": "nonpayable",
      "type": "function"
    },
    {
      "constant": false,
      "inputs": [
        {
          "name": "id",
          "type": "bytes32"
        },
        {
          "name": "index",
          "type": "uint256"
        }
      ],
      "name": "claimTournamentRefund",
      "outputs": [
        {
          "name": "",
          "type": "bool"
        }
      ],
      "payable": false,
      "stateMutability": "nonpayable",
      "type": "function"
    },
    {
      "constant": true,
      "inputs": [
        {
          "name": "id",
          "type": "bytes32"
        }
      ],
      "name": "getRakeFee",
      "outputs": [
        {
          "name": "",
          "type": "uint256"
        }
      ],
      "payable": false,
      "stateMutability": "view",
      "type": "function"
    },
    {
      "constant": true,
      "inputs": [
        {
          "name": "id",
          "type": "bytes32"
        },
        {
          "name": "index",
          "type": "uint256"
        }
      ],
      "name": "getTournamentEntry",
      "outputs": [
        {
          "components": [
            {
              "name": "_address",
              "type": "address"
            },
            {
              "name": "finalStanding",
              "type": "uint256"
            }
          ],
          "name": "",
          "type": "tuple"
        }
      ],
      "payable": false,
      "stateMutability": "view",
      "type": "function"
    },
    {
      "constant": true,
      "inputs": [
        {
          "name": "id",
          "type": "bytes32"
        },
        {
          "name": "index",
          "type": "uint256"
        }
      ],
      "name": "getTournamentFinalStanding",
      "outputs": [
        {
          "name": "",
          "type": "uint256"
        }
      ],
      "payable": false,
      "stateMutability": "view",
      "type": "function"
    }
  ],
  "bytecode": "0x60806040523480156200001157600080fd5b5060405160408062002296833981018060405262000033919081019062000085565b60008054600160a060020a0319908116331790915560018054600160a060020a0394851690831617905560028054929093169116179055620000e3565b60006200007e8251620000d0565b9392505050565b600080604083850312156200009957600080fd5b6000620000a7858562000070565b9250506020620000ba8582860162000070565b9150509250929050565b600160a060020a031690565b6000620000dd82620000c4565b92915050565b6121a380620000f36000396000f3fe6080604052600436106100cf5763ffffffff7c010000000000000000000000000000000000000000000000000000000060003504166305114bf981146100d45780630b69afa81461010a578063304e05c014610137578063696d2c40146101575780636e2b2c7c1461017757806374de11d51461018c57806378fda683146101ac5780637f606666146101cc5780638d44539f146101e15780638da5cb5b14610201578063f34e55de14610223578063f851a44014610243578063f89e187814610265578063fc0c546a14610292575b600080fd5b3480156100e057600080fd5b506100f46100ef3660046118b6565b6102a7565b6040516101019190611f14565b60405180910390f35b34801561011657600080fd5b5061012a610125366004611927565b61047e565b6040516101019190611f06565b34801561014357600080fd5b5061012a61015236600461198c565b610827565b34801561016357600080fd5b506100f46101723660046119e4565b610d37565b34801561018357600080fd5b506100f4610f72565b34801561019857600080fd5b506100f46101a736600461198c565b610f78565b3480156101b857600080fd5b506100f46101c7366004611909565b610fb0565b3480156101d857600080fd5b506100f4610ff4565b3480156101ed57600080fd5b5061012a6101fc36600461198c565b610ffa565b34801561020d57600080fd5b5061021661122e565b6040516101019190611e7e565b34801561022f57600080fd5b5061012a61023e366004611909565b61123d565b34801561024f57600080fd5b50610258611687565b6040516101019190611f22565b34801561027157600080fd5b5061028561028036600461198c565b611696565b60405161010191906120ca565b34801561029e57600080fd5b506102586116f6565b6001546040517f429b62e5000000000000000000000000000000000000000000000000000000008152600091600160a060020a03169063429b62e5906102f1903390600401611e8c565b60206040518083038186803b15801561030957600080fd5b505afa15801561031d573d6000803e3d6000fd5b505050506040513d601f19601f8201168201806040525061034191908101906118eb565b151561036b5760405160e560020a62461bcd028152600401610362906120aa565b60405180910390fd5b815160001061038f5760405160e560020a62461bcd02815260040161036290611f60565b6000805b83518110156103ce576103c484828151811015156103ad57fe5b60209081029091010151839063ffffffff61170516565b9150600101610393565b50606481146103f25760405160e560020a62461bcd0281526004016103629061208a565b6000600554604051602001610407919061200b565b60408051601f19818403018152918152815160209283012060008181526003845291909120865191935061044092909190870190611762565b50600580546001810190915560405182907f01def64f7f3b9d1d5462857c37b202a7450786a4922c3d1dc29ee54efa765a2590600090a35050919050565b6001546040517f429b62e5000000000000000000000000000000000000000000000000000000008152600091600160a060020a03169063429b62e5906104c8903390600401611e8c565b60206040518083038186803b1580156104e057600080fd5b505afa1580156104f4573d6000803e3d6000fd5b505050506040513d601f19601f8201168201806040525061051891908101906118eb565b15156105395760405160e560020a62461bcd028152600401610362906120aa565b60008481526004602052604090205415156105695760405160e560020a62461bcd0281526004016103629061202a565b6000848152600460205260409020600a015460ff161561059e5760405160e560020a62461bcd02815260040161036290611f70565b6000835111156107d557600082116105b557600080fd5b60005b6000858152600460205260409020600601548110156106265783818151811015156105df57fe5b602090810290910181015160008781526004909252604090912060060180548390811061060857fe5b600091825260209091206001600290920201810191909155016105b8565b5060008481526004602081815260409283902060078101869055600a01805460ff19166001908117909155600254905484517ffa2af9da0000000000000000000000000000000000000000000000000000000081529451600160a060020a039283169563a9059cbb95939092169363fa2af9da9383810193919291829003018186803b1580156106b557600080fd5b505afa1580156106c9573d6000803e3d6000fd5b505050506040513d601f19601f820116820180604052506106ed9190810190611890565b6106f687610fb0565b6040518363ffffffff167c010000000000000000000000000000000000000000000000000000000002815260040161072f929190611ef8565b602060405180830381600087803b15801561074957600080fd5b505af115801561075d573d6000803e3d6000fd5b505050506040513d601f19601f8201168201806040525061078191908101906118eb565b15156107a25760405160e560020a62461bcd0281526004016103629061203a565b60405160019085907fd61e00e0d2ae86e03c138a28a449a52725c37c152c6c654cf01414f126432a6a90600090a3610820565b600084815260046020526040808220600a01805460ff191660029081179091559051909186917fd61e00e0d2ae86e03c138a28a449a52725c37c152c6c654cf01414f126432a6a9190a35b9392505050565b60008281526004602052604081205415156108575760405160e560020a62461bcd0281526004016103629061202a565b6000838152600460205260409020600a015460ff1660011461088e5760405160e560020a62461bcd02815260040161036290611f70565b60008381526004602052604090206006018054339190849081106108ae57fe5b6000918252602090912060029091020154600160a060020a0316146108e85760405160e560020a62461bcd0281526004016103629061206a565b600083815260046020908152604080832085845260080190915290205460ff16156109285760405160e560020a62461bcd02815260040161036290611feb565b600083815260046020818152604080842060058101548552600383529084209387905291905260060180548490811061095d57fe5b90600052602060002090600202016001015481548110151561097b57fe5b60009182526020909120015415156109a85760405160e560020a62461bcd02815260040161036290611f30565b6000805b600085815260046020526040902060060154811015610a3e5760008581526004602052604090206006018054859081106109e257fe5b9060005260206000209060020201600101546004600087815260200190815260200160002060060182815481101515610a1757fe5b9060005260206000209060020201600101541415610a36576001909101905b6001016109ac565b506000610a7e610a4d86610fb0565b60008781526004602052604090208054600690910154610a729163ffffffff61171216565b9063ffffffff61173b16565b6000868152600460209081526040808320600501548352600390915281208054929350909186908110610aad57fe5b60009182526020808320909101548883526004825260408084206007810154600590910154855260039093528320549093501115610b96576000878152600460205260408120600701545b60008981526004602090815260408083206005015483526003909152902054811015610b71576000898152600460209081526040808320600501548352600390915290208054610b67919083908110610b4d57fe5b90600052602060002001548361170590919063ffffffff16565b9150600101610af8565b50610b9285610b86858463ffffffff61170516565b9063ffffffff61174d16565b9250505b610bad84610b86606481878763ffffffff61171216565b6002546040517fa9059cbb000000000000000000000000000000000000000000000000000000008152919250600160a060020a03169063a9059cbb90610bf99033908590600401611edd565b602060405180830381600087803b158015610c1357600080fd5b505af1158015610c27573d6000803e3d6000fd5b505050506040513d601f19601f82011682018060405250610c4b91908101906118eb565b1515610c6c5760405160e560020a62461bcd0281526004016103629061203a565b60008781526004602081815260408084208a8552600881018352908420805460ff19166001179055928a905252600601805488917fad351660e23bfe4a06634d98857e178bc0e71ef2ff8985d66431114796c21e6e9189908110610ccc57fe5b60009182526020808320600160029093020191909101548b83526004825260408084206005015484526003909252912080548a919082908110610d0b57fe5b9060005260206000200154604051610d25939291906120d8565b60405180910390a25050505092915050565b6001546040517f429b62e5000000000000000000000000000000000000000000000000000000008152600091600160a060020a03169063429b62e590610d81903390600401611e8c565b60206040518083038186803b158015610d9957600080fd5b505afa158015610dad573d6000803e3d6000fd5b505050506040513d601f19601f82011682018060405250610dd191908101906118eb565b1515610df25760405160e560020a62461bcd028152600401610362906120aa565b60008611610e155760405160e560020a62461bcd0281526004016103629061205a565b60008711610e385760405160e560020a62461bcd028152600401610362906120ba565b600085118015610e485750838511155b1515610e695760405160e560020a62461bcd0281526004016103629061204a565b600083118015610e795750606483105b1515610e9a5760405160e560020a62461bcd02815260040161036290611f40565b600082815260036020526040812080549091908110610eb557fe5b6000918252602090912001541515610ecc57600080fd5b60008787878787600654604051602001610eeb96959493929190611f80565b60408051601f19818403018152828252805160209182012060008181526004928390529283208c815560018082018d9055600282018c9055600382018b905560058201899055920188905560068054928301905593509183917f397d4a2fe9561dded5b33b9ef6341bb5b4d59518aecd13e6b575ffde48ac79ec91a3509695505050505050565b60065481565b6000828152600460205260408120600601805483908110610f9557fe5b90600052602060002090600202016001015490505b92915050565b600081815260046020819052604082209081015460068201549154610faa92606492610b86929091610fe8919063ffffffff61171216565b9063ffffffff61171216565b60055481565b600082815260046020526040812054151561102a5760405160e560020a62461bcd0281526004016103629061202a565b6000838152600460205260409020600a015460ff166002146110615760405160e560020a62461bcd02815260040161036290611f70565b600083815260046020526040902060060180543391908490811061108157fe5b6000918252602090912060029091020154600160a060020a0316146110bb5760405160e560020a62461bcd0281526004016103629061206a565b600083815260046020908152604080832085845260090190915290205460ff16156110fb5760405160e560020a62461bcd02815260040161036290611f50565b6002546000848152600460208190526040918290205491517fa9059cbb000000000000000000000000000000000000000000000000000000008152600160a060020a039093169263a9059cbb9261115492339201611edd565b602060405180830381600087803b15801561116e57600080fd5b505af1158015611182573d6000803e3d6000fd5b505050506040513d601f19601f820116820180604052506111a691908101906118eb565b15156111c75760405160e560020a62461bcd0281526004016103629061203a565b600083815260046020908152604080832085845260090190915290819020805460ff191660011790555183907fee416b1ab56f915dd10c5d167030769205efc15d146641e0e25a7f45794b9f3490611220908590611f14565b60405180910390a292915050565b600054600160a060020a031681565b600081815260046020526040812054151561126d5760405160e560020a62461bcd0281526004016103629061202a565b60008281526004602052604090206001908101541115611328576000805b6000848152600460205260409020600601548110156113255760008481526004602052604090206006018054339190839081106112c457fe5b6000918252602090912060029091020154600160a060020a0316141561131d57600084815260046020526040902060019081015492019182111561131d5760405160e560020a62461bcd0281526004016103629061209a565b60010161128b565b50505b6000828152600460205260409020600a015460ff161561135d5760405160e560020a62461bcd02815260040161036290611f70565b6000828152600460205260409020600381015460069091015414156113975760405160e560020a62461bcd0281526004016103629061207a565b6000828152600460208190526040918290205460025492517f70a082310000000000000000000000000000000000000000000000000000000081529092600160a060020a0316916370a08231916113f091339101611e8c565b60206040518083038186803b15801561140857600080fd5b505afa15801561141c573d6000803e3d6000fd5b505050506040513d601f19601f8201168201806040525061144091908101906119c6565b101580156114f757506000828152600460208190526040918290205460025492517fdd62ed3e0000000000000000000000000000000000000000000000000000000081529092600160a060020a03169163dd62ed3e916114a4913391309101611e9a565b60206040518083038186803b1580156114bc57600080fd5b505afa1580156114d0573d6000803e3d6000fd5b505050506040513d601f19601f820116820180604052506114f491908101906119c6565b10155b15156115185760405160e560020a62461bcd02815260040161036290611ffb565b6002546000838152600460208190526040918290205491517f23b872dd000000000000000000000000000000000000000000000000000000008152600160a060020a03909316926323b872dd9261157492339230929101611eb5565b602060405180830381600087803b15801561158e57600080fd5b505af11580156115a2573d6000803e3d6000fd5b505050506040513d601f19601f820116820180604052506115c691908101906118eb565b15156115e75760405160e560020a62461bcd0281526004016103629061203a565b60008281526004602090815260408083208151808301835233808252818501868152600690930180546001808201835591885295872092516002909602909201805473ffffffffffffffffffffffffffffffffffffffff1916600160a060020a03909616959095178555915193019290925551909184917f603014aa28a647ee5d7cfec1f7cb428a796a652f5d0d9d86f12e9eb5fc4fb4679190a3919050565b600154600160a060020a031681565b61169e6117ad565b60008381526004602052604090206006018054839081106116bb57fe5b6000918252602091829020604080518082019091526002909202018054600160a060020a031682526001015491810191909152905092915050565b600254600160a060020a031681565b81810182811015610faa57fe5b600082151561172357506000610faa565b5081810281838281151561173357fe5b0414610faa57fe5b60008282111561174757fe5b50900390565b6000818381151561175a57fe5b049392505050565b82805482825590600052602060002090810192821561179d579160200282015b8281111561179d578251825591602001919060010190611782565b506117a99291506117c4565b5090565b604080518082019091526000808252602082015290565b6117de91905b808211156117a957600081556001016117ca565b90565b6000610820825161213b565b6000601f820183136117fe57600080fd5b813561181161180c8261211a565b6120f3565b9150818183526020840193506020810190508385602084028201111561183657600080fd5b60005b83811015611862578161184c8882611878565b8452506020928301929190910190600101611839565b5050505092915050565b60006108208251612146565b600061082082356117de565b600061082082516117de565b6000602082840312156118a257600080fd5b60006118ae84846117e1565b949350505050565b6000602082840312156118c857600080fd5b813567ffffffffffffffff8111156118df57600080fd5b6118ae848285016117ed565b6000602082840312156118fd57600080fd5b60006118ae848461186c565b60006020828403121561191b57600080fd5b60006118ae8484611878565b60008060006060848603121561193c57600080fd5b60006119488686611878565b935050602084013567ffffffffffffffff81111561196557600080fd5b611971868287016117ed565b925050604061198286828701611878565b9150509250925092565b6000806040838503121561199f57600080fd5b60006119ab8585611878565b92505060206119bc85828601611878565b9150509250929050565b6000602082840312156119d857600080fd5b60006118ae8484611884565b60008060008060008060c087890312156119fd57600080fd5b6000611a098989611878565b9650506020611a1a89828a01611878565b9550506040611a2b89828a01611878565b9450506060611a3c89828a01611878565b9350506080611a4d89828a01611878565b92505060a0611a5e89828a01611878565b9150509295509295509295565b611a7481612157565b82525050565b611a748161213b565b611a7481612146565b611a74816117de565b611a748161215e565b601981527f494e56414c49445f5052495a455f5441424c455f494e44455800000000000000602082015260400190565b601481527f494e56414c49445f52414b455f50455243454e54000000000000000000000000602082015260400190565b601781527f494e56414c49445f524546554e4445445f535441545553000000000000000000602082015260400190565b601381527f494e56414c49445f5052495a455f5441424c4500000000000000000000000000602082015260400190565b601981527f494e56414c49445f544f55524e414d454e545f53544154555300000000000000602082015260400190565b600b81527f746f75726e616d656e745f000000000000000000000000000000000000000000602082015260400190565b601681527f494e56414c49445f434c41494d45445f53544154555300000000000000000000602082015260400190565b602281527f494e56414c49445f544f4b454e5f42414c414e43455f4f525f414c4c4f57414e60208201527f4345000000000000000000000000000000000000000000000000000000000000604082015260600190565b600c81527f7072697a655f7461626c655f0000000000000000000000000000000000000000602082015260400190565b601581527f494e56414c49445f544f55524e414d454e545f49440000000000000000000000602082015260400190565b601481527f544f4b454e5f5452414e534645525f4552524f52000000000000000000000000602082015260400190565b601581527f494e56414c49445f454e54524945535f52414e47450000000000000000000000602082015260400190565b601381527f494e56414c49445f454e5452595f4c494d495400000000000000000000000000602082015260400190565b601d81527f494e56414c49445f46494e414c5f5354414e44494e47535f494e444558000000602082015260400190565b601881527f4d41585f454e5452595f434f554e545f45584345454445440000000000000000602082015260400190565b601b81527f494e56414c49445f5052495a455f50455243454e545f544f54414c0000000000602082015260400190565b601481527f454e5452595f4c494d49545f4558434545444544000000000000000000000000602082015260400190565b600e81527f494e56414c49445f53454e444552000000000000000000000000000000000000602082015260400190565b601181527f494e56414c49445f454e5452595f464545000000000000000000000000000000602082015260400190565b80516040830190611e658482611a7a565b506020820151611e786020850182611a8c565b50505050565b60208101610faa8284611a7a565b60208101610faa8284611a6b565b60408101611ea88285611a6b565b6108206020830184611a7a565b60608101611ec38286611a6b565b611ed06020830185611a7a565b6118ae6040830184611a8c565b60408101611eeb8285611a6b565b6108206020830184611a8c565b60408101611eeb8285611a7a565b60208101610faa8284611a83565b60208101610faa8284611a8c565b60208101610faa8284611a95565b60208082528101610faa81611a9e565b60208082528101610faa81611ace565b60208082528101610faa81611afe565b60208082528101610faa81611b2e565b60208082528101610faa81611b5e565b60e08082528101611f9081611b8e565b9050611f9f6020830189611a8c565b611fac6040830188611a8c565b611fb96060830187611a8c565b611fc66080830186611a8c565b611fd360a0830185611a8c565b611fe060c0830184611a8c565b979650505050505050565b60208082528101610faa81611bbe565b60208082528101610faa81611bee565b6040808252810161201b81611c44565b9050610faa6020830184611a8c565b60208082528101610faa81611c74565b60208082528101610faa81611ca4565b60208082528101610faa81611cd4565b60208082528101610faa81611d04565b60208082528101610faa81611d34565b60208082528101610faa81611d64565b60208082528101610faa81611d94565b60208082528101610faa81611dc4565b60208082528101610faa81611df4565b60208082528101610faa81611e24565b60408101610faa8284611e54565b606081016120e68286611a8c565b611ed06020830185611a8c565b60405181810167ffffffffffffffff8111828210171561211257600080fd5b604052919050565b600067ffffffffffffffff82111561213157600080fd5b5060209081020190565b6000610faa8261214b565b151590565b600160a060020a031690565b6000610faa825b6000610faa8261213b56fea265627a7a7230582058c5b02075ad92a205487c3a4fa5a07df4349c33a0f77854095b9819e332a2a76c6578706572696d656e74616cf50037",
  "source": "pragma solidity 0.5.0;\npragma experimental ABIEncoderV2;\n\nimport \"./interfaces/ITournament.sol\";\nimport \"./libs/LibTournament.sol\";\n\nimport \"../admin/Admin.sol\";\n\nimport \"../token/ERC20.sol\";\n\nimport \"../utils/SafeMath.sol\";\n\ncontract Tournament is\nITournament,\nLibTournament {\n\n    using SafeMath for uint256;\n\n    // Owner of the tournament contract\n    address public owner;\n    // Admin contract\n    Admin public admin;\n    // Token contract\n    ERC20 public token;\n\n    // Prize table mapping\n    mapping (bytes32 => uint256[]) prizeTables;\n    // Tournaments mapping\n    mapping (bytes32 => Tournament) tournaments;\n    // Prize table count\n    uint256 public prizeTableCount;\n    // Tournament count\n    uint256 public tournamentCount;\n\n    // Log new prize table\n    event LogNewPrizeTable(\n        bytes32 indexed id,\n        uint256 indexed count\n    );\n    // Log new tournament\n    event LogNewTournament(\n        bytes32 indexed id,\n        uint256 indexed count\n    );\n    // Log entered tournament\n    event LogEnteredTournament(\n        bytes32 indexed id,\n        address indexed participant\n    );\n    // Log completed tournament\n    event LogCompletedTournament(\n        bytes32 indexed id,\n        uint8 indexed status\n    );\n    // Log claimed tournament prize\n    event LogClaimedTournamentPrize(\n        bytes32 indexed id,\n        uint256 entryIndex,\n        uint256 finalStanding,\n        uint256 prize\n    );\n    // Log refunded tournament entry\n    event LogRefundedTournamentEntry(\n        bytes32 indexed id,\n        uint256 entryIndex\n    );\n\n    constructor (\n        address _admin,\n        address _token\n    )\n    public {\n        owner = msg.sender;\n        admin = Admin(_admin);\n        token = ERC20(_token);\n    }\n\n    /**\n    * Creates a prize table that can be used for a tournament\n    * @param table Array of integers representing redeemable prize money for each position represented by indices in the array\n    * @return Unique ID of the prize table\n    */\n    function createPrizeTable(\n        uint256[] memory table\n    ) public returns (bytes32) {\n        // Sender must be an admin\n        require(\n            admin.admins(msg.sender),\n            \"INVALID_SENDER\"\n        );\n        // Prize table must have more than one prize value\n        require(\n            table.length > 0,\n            \"INVALID_PRIZE_TABLE\"\n        );\n        uint256 totalPrizePercent = 0;\n        for (uint256 i = 0; i < table.length; i++) {\n            totalPrizePercent = totalPrizePercent.add(table[i]);\n        }\n        // Total percentage of prizes in prize table must be 100\n        require(\n            totalPrizePercent == 100,\n            \"INVALID_PRIZE_PERCENT_TOTAL\"\n        );\n        bytes32 id = keccak256(\n            abi.encode(\n                \"prize_table_\",\n                prizeTableCount\n            )\n        );\n        prizeTables[id] = table;\n        emit LogNewPrizeTable(\n            id,\n            prizeTableCount++\n        );\n    }\n\n    /**\n    * Creates a tournament that users can enter\n    * @param entryFee Fee to enter the tournament\n    * @param entryLimit Entry limit for each unique address\n    * @param minEntries The minimum number of entries for the tournament\n    * @param maxEntries The maximum number of entries for the tournament\n    * @param rakePercent Percentage of the prize pool retained by Decent.bet\n    * @param prizeTable Unique ID of prize table to be used for the tournament\n    * @return Unique ID of the created tournament\n    */\n    function createTournament(\n        uint256 entryFee,\n        uint256 entryLimit,\n        uint256 minEntries,\n        uint256 maxEntries,\n        uint256 rakePercent,\n        bytes32 prizeTable\n    ) public returns (bytes32) {\n        // Creator must be an admin\n        require(\n            admin.admins(msg.sender),\n            \"INVALID_SENDER\"\n        );\n        // Entry limit must be greater than 0\n        require(\n            entryLimit > 0,\n            \"INVALID_ENTRY_LIMIT\"\n        );\n        // Entry fee must be greater than 0\n        require(\n            entryFee > 0,\n            \"INVALID_ENTRY_FEE\"\n        );\n        // Min entries must be greater than 0 and less than or equal to max entries\n        require(\n            minEntries > 0 &&\n            minEntries <= maxEntries,\n            \"INVALID_ENTRIES_RANGE\"\n        );\n        // Rake percent must be greater than 0 and less than 100\n        require(\n            rakePercent > 0 &&\n            rakePercent < 100,\n            \"INVALID_RAKE_PERCENT\"\n        );\n        // Must be a valid prize table\n        require(prizeTables[prizeTable][0] != 0);\n        bytes32 id = keccak256(\n            abi.encode(\n                \"tournament_\",\n                entryFee,\n                entryLimit,\n                minEntries,\n                maxEntries,\n                rakePercent,\n                tournamentCount\n            )\n        );\n\n        // Assign params\n        tournaments[id].entryFee = entryFee;\n        tournaments[id].entryLimit = entryLimit;\n        tournaments[id].minEntries = minEntries;\n        tournaments[id].maxEntries = maxEntries;\n        tournaments[id].prizeTable = prizeTable;\n        tournaments[id].rakePercent = rakePercent;\n\n        // Emit log new tournament event\n        emit LogNewTournament(\n            id,\n            tournamentCount++\n        );\n    }\n\n    /**\n    * Allows users to enter a tournament by paying the listed entry fee\n    * @param id Unique ID of the tournament\n    */\n    function enterTournament(\n        bytes32 id\n    ) public returns (bool) {\n        // Must be a valid tournament\n        require(\n            tournaments[id].entryFee != 0,\n            \"INVALID_TOURNAMENT_ID\"\n        );\n        // Cannot have already entered the tournament if entryLimit is false\n        if(tournaments[id].entryLimit > 1) {\n            uint256 entryCount = 0;\n            for (uint256 i = 0; i < tournaments[id].entries.length; i++) {\n                if(tournaments[id].entries[i]._address == msg.sender) {\n                    require(\n                        ++entryCount <= tournaments[id].entryLimit,\n                        \"ENTRY_LIMIT_EXCEEDED\"\n                    );\n                }\n            }\n        }\n        // Tournament cannot have been completed\n        require(\n            tournaments[id].status == uint8(TournamentStatus.ACTIVE),\n            \"INVALID_TOURNAMENT_STATUS\"\n        );\n        // Cannot be over max entry count\n        require(\n            tournaments[id].entries.length !=\n            tournaments[id].maxEntries,\n            \"MAX_ENTRY_COUNT_EXCEEDED\"\n        );\n        // Must have a balance and allowance >= entryFee\n        require(\n            token.balanceOf(msg.sender) >= tournaments[id].entryFee &&\n            token.allowance(msg.sender, address(this)) >= tournaments[id].entryFee,\n            \"INVALID_TOKEN_BALANCE_OR_ALLOWANCE\"\n        );\n        // Transfer tokens to contract\n        require(\n            token.transferFrom(\n                msg.sender,\n                address(this),\n                tournaments[id].entryFee\n            ),\n            \"TOKEN_TRANSFER_ERROR\"\n        );\n        // Add to tournament\n        tournaments[id].entries.push(TournamentEntry({\n            _address: msg.sender,\n            finalStanding: 0\n        }));\n        // Emit log entered tournament event\n        emit LogEnteredTournament(\n            id,\n            msg.sender\n        );\n    }\n\n    /**\n    * Allows the admin to complete the tournament by publishing the final standings\n    * @param id Unique ID of the tournament\n    * @param finalStandings Final standings for entries in the tournament\n    * @param uniqueFinalStandings Number of unique positions in the final standing array\n    * @return Whether the tournament was completed\n    */\n    function completeTournament(\n        bytes32 id,\n        uint256[] memory finalStandings,\n        uint256 uniqueFinalStandings\n    ) public returns (bool) {\n        // Sender must be an admin\n        require(\n            admin.admins(msg.sender),\n            \"INVALID_SENDER\"\n        );\n        // Must be a valid tournament\n        require(\n            tournaments[id].entryFee != 0,\n            \"INVALID_TOURNAMENT_ID\"\n        );\n        // Tournament cannot have been completed\n        require(\n            tournaments[id].status == uint8(TournamentStatus.ACTIVE),\n            \"INVALID_TOURNAMENT_STATUS\"\n        );\n        if(finalStandings.length > 0) {\n            // Unique final standings must be greater than 0\n            require(uniqueFinalStandings > 0);\n            // Tournament successfully completed\n            // Set finalStandings for the tournament\n            for (uint256 i = 0; i < tournaments[id].entries.length; i++) {\n                tournaments[id].entries[i].finalStanding = finalStandings[i];\n            }\n            // Set unique final standings\n            tournaments[id].uniqueFinalStandings = uniqueFinalStandings;\n            // Set tournament status to completed\n            tournaments[id].status = uint8(TournamentStatus.COMPLETED);\n            // Transfer tournament rake fee to platform wallet\n            require(\n                token.transfer(\n                    admin.platformWallet(),\n                    getRakeFee(id)\n                ),\n                \"TOKEN_TRANSFER_ERROR\"\n            );\n            // Emit log completed tournament event\n            emit LogCompletedTournament(\n                id,\n                uint8(TournamentStatus.COMPLETED)\n            );\n        } else {\n            // Tournament has ended unsuccessfully, allow users to claim refunds\n            // Set tournament status to failed\n            tournaments[id].status = uint8(TournamentStatus.FAILED);\n            // Emit log completed tournament event\n            emit LogCompletedTournament(\n                id,\n                uint8(TournamentStatus.FAILED)\n            );\n        }\n    }\n\n    /**\n    * Allows users to claim their tournament prizes\n    * @param id Unique ID of the tournament\n    * @param index Index in the tournaments' entries\n    * @return Whether the tournament prize was claimed\n    */\n    function claimTournamentPrize(\n        bytes32 id,\n        uint256 index\n    ) public returns (bool) {\n        // Must be a valid tournament\n        require(\n            tournaments[id].entryFee != 0,\n            \"INVALID_TOURNAMENT_ID\"\n        );\n        // Tournament should have been completed\n        require(\n            tournaments[id].status == uint8(TournamentStatus.COMPLETED),\n            \"INVALID_TOURNAMENT_STATUS\"\n        );\n        // Address at final standings index must be sender\n        require(\n            tournaments[id].entries[index]._address == msg.sender,\n            \"INVALID_FINAL_STANDINGS_INDEX\"\n        );\n        // User cannot have already claimed their prize\n        require(\n            !tournaments[id].claimed[index],\n            \"INVALID_CLAIMED_STATUS\"\n        );\n        // Prize table must have a valid prize at final standings index\n        require(\n            prizeTables\n            [tournaments[id].prizeTable]\n            [tournaments[id].entries[index].finalStanding] != 0,\n            \"INVALID_PRIZE_TABLE_INDEX\"\n        );\n        // Check for other winners with same final standing\n        uint256 sharedFinalStandings = 0;\n        for(uint256 i = 0; i < tournaments[id].entries.length; i++) {\n            if(\n                tournaments[id].entries[i].finalStanding ==\n                tournaments[id].entries[index].finalStanding\n            )\n                sharedFinalStandings++;\n        }\n        // Calculate prize pool\n        uint256 prizePool = (tournaments[id].entries.length\n                    .mul(tournaments[id].entryFee))\n                    .sub(getRakeFee(id));\n        uint256 prizePercent = (prizeTables[tournaments[id].prizeTable][index]);\n        uint256 prizeMoney;\n        // If the amount of prize winners is greater than the number of unique final standings,\n        // split excess token % split among all addresses in final standings\n        if(\n            prizeTables[tournaments[id].prizeTable].length >\n            tournaments[id].uniqueFinalStandings\n        ) {\n            uint256 excessPrizePercent;\n            for(\n                uint256 i = tournaments[id].uniqueFinalStandings;\n                i < prizeTables[tournaments[id].prizeTable].length;\n                i++\n            ) {\n                excessPrizePercent = excessPrizePercent.add(prizeTables[tournaments[id].prizeTable][i]);\n            }\n            prizePercent = prizePercent.add(excessPrizePercent).div(sharedFinalStandings);\n        }\n        // Transfer prize percent of total prize money divided by the number of winners for the same final standing index\n        prizeMoney = prizePool\n            .mul(prizePercent)\n            .div(100)\n            .div(sharedFinalStandings);\n        // Transfer prize tokens to sender\n        require(\n            token.transfer(\n                msg.sender,\n                prizeMoney\n            ),\n            \"TOKEN_TRANSFER_ERROR\"\n        );\n        // Mark prize as claimed\n        tournaments[id].claimed[index] = true;\n        // Emit log claimed tournament prize event\n        emit LogClaimedTournamentPrize(\n            id,\n            tournaments[id].entries[index].finalStanding,\n            index,\n            prizeTables[tournaments[id].prizeTable][index]\n        );\n    }\n\n    /**\n    * Allows users to claim refunds for tournaments that were not completed\n    * @param id Unique tournament ID\n    * @param index Entries index in the tournament's entries array\n    * @return Whether entry fees were refunded for tournament entry\n    */\n    function claimTournamentRefund(\n        bytes32 id,\n        uint256 index\n    )\n    public\n    returns (bool) {\n        // Must be a valid tournament\n        require(\n            tournaments[id].entryFee != 0,\n            \"INVALID_TOURNAMENT_ID\"\n        );\n        // Tournament should have a failed status\n        require(\n            tournaments[id].status == uint8(TournamentStatus.FAILED),\n            \"INVALID_TOURNAMENT_STATUS\"\n        );\n        // Address at entries index must be sender\n        require(\n            tournaments[id].entries[index]._address == msg.sender,\n            \"INVALID_FINAL_STANDINGS_INDEX\"\n        );\n        // User cannot have already claimed their refund\n        require(\n            !tournaments[id].refunded[index],\n            \"INVALID_REFUNDED_STATUS\"\n        );\n        // Transfer entry fee to sender\n        require(\n            token.transfer(\n                msg.sender,\n                tournaments[id].entryFee\n            ),\n            \"TOKEN_TRANSFER_ERROR\"\n        );\n        // Mark entry as refunded\n        tournaments[id].refunded[index] = true;\n        emit LogRefundedTournamentEntry(\n            id,\n            index\n        );\n    }\n\n    /**\n    * Returns rake fee for a tournament\n    * @param id Unique tournament ID\n    * @return tournament rake fee\n    */\n    function getRakeFee(\n        bytes32 id\n    )\n    public\n    view\n    returns (uint256) {\n        return (tournaments[id].entryFee)\n            .mul(tournaments[id].entries.length)\n            .mul(tournaments[id].rakePercent)\n            .div(100);\n    }\n\n    /**\n    * Returns an entry address at a tournament entries index\n    * @param id Unique tournament ID\n    * @param index Tournament entry index\n    * @return Tournament entry at index\n    */\n    function getTournamentEntry(\n        bytes32 id,\n        uint256 index\n    )\n    public\n    view\n    returns (TournamentEntry memory) {\n        return tournaments[id].entries[index];\n    }\n\n    /**\n    * Returns a final standing for a tournament\n    * @param id Unique tournament ID\n    * @param index Tournament entry index\n    * @return Tournament final standing at index\n    */\n    function getTournamentFinalStanding(\n        bytes32 id,\n        uint256 index\n    )\n    public\n    view\n    returns (uint256) {\n        return tournaments[id].entries[index].finalStanding;\n    }\n\n}",
  "sourcePath": "/home/zubietaroberto/work/playdbet-contracts/contracts/tournament/Tournament.sol",
  "compiler": {
    "name": "solc",
    "version": "0.5.0+commit.1d4f565a.Emscripten.clang"
  },
  "schemaVersion": "3.0.2",
  "updatedAt": "2019-02-25T15:55:05.909Z",
  "devdoc": {
    "methods": {
      "claimTournamentPrize(bytes32,uint256)": {
        "params": {
          "id": "Unique ID of the tournament",
          "index": "Index in the tournaments' entries"
        },
        "return": "Whether the tournament prize was claimed"
      },
      "claimTournamentRefund(bytes32,uint256)": {
        "params": {
          "id": "Unique tournament ID",
          "index": "Entries index in the tournament's entries array"
        },
        "return": "Whether entry fees were refunded for tournament entry"
      },
      "completeTournament(bytes32,uint256[],uint256)": {
        "params": {
          "finalStandings": "Final standings for entries in the tournament",
          "id": "Unique ID of the tournament",
          "uniqueFinalStandings": "Number of unique positions in the final standing array"
        },
        "return": "Whether the tournament was completed"
      },
      "createPrizeTable(uint256[])": {
        "params": {
          "table": "Array of integers representing redeemable prize money for each position represented by indices in the array"
        },
        "return": "Unique ID of the prize table"
      },
      "createTournament(uint256,uint256,uint256,uint256,uint256,bytes32)": {
        "params": {
          "entryFee": "Fee to enter the tournament",
          "entryLimit": "Entry limit for each unique address",
          "maxEntries": "The maximum number of entries for the tournament",
          "minEntries": "The minimum number of entries for the tournament",
          "prizeTable": "Unique ID of prize table to be used for the tournament",
          "rakePercent": "Percentage of the prize pool retained by Decent.bet"
        },
        "return": "Unique ID of the created tournament"
      },
      "enterTournament(bytes32)": {
        "params": {
          "id": "Unique ID of the tournament"
        }
      },
      "getRakeFee(bytes32)": {
        "params": {
          "id": "Unique tournament ID"
        },
        "return": "tournament rake fee"
      },
      "getTournamentEntry(bytes32,uint256)": {
        "params": {
          "id": "Unique tournament ID",
          "index": "Tournament entry index"
        },
        "return": "Tournament entry at index"
      },
      "getTournamentFinalStanding(bytes32,uint256)": {
        "params": {
          "id": "Unique tournament ID",
          "index": "Tournament entry index"
        },
        "return": "Tournament final standing at index"
      }
    }
  },
  "userdoc": {
    "methods": {
      "claimTournamentPrize(bytes32,uint256)": {
        "notice": "Allows users to claim their tournament prizes"
      },
      "claimTournamentRefund(bytes32,uint256)": {
        "notice": "Allows users to claim refunds for tournaments that were not completed"
      },
      "completeTournament(bytes32,uint256[],uint256)": {
        "notice": "Allows the admin to complete the tournament by publishing the final standings"
      },
      "createPrizeTable(uint256[])": {
        "notice": "Creates a prize table that can be used for a tournament"
      },
      "createTournament(uint256,uint256,uint256,uint256,uint256,bytes32)": {
        "notice": "Creates a tournament that users can enter"
      },
      "enterTournament(bytes32)": {
        "notice": "Allows users to enter a tournament by paying the listed entry fee"
      },
      "getRakeFee(bytes32)": {
        "notice": "Returns rake fee for a tournament"
      },
      "getTournamentEntry(bytes32,uint256)": {
        "notice": "Returns an entry address at a tournament entries index"
      },
      "getTournamentFinalStanding(bytes32,uint256)": {
        "notice": "Returns a final standing for a tournament"
      }
    }
  }
}