{"contractName":"Quest","abi":[{"constant":true,"inputs":[{"name":"","type":"address"},{"name":"","type":"bytes32"}],"name":"userQuestEntries","outputs":[{"name":"entryTime","type":"uint256"},{"name":"status","type":"uint8"},{"name":"exists","type":"bool"}],"payable":false,"stateMutability":"view","type":"function","signature":"0x2bd4ace6"},{"constant":true,"inputs":[{"name":"","type":"bytes32"}],"name":"quests","outputs":[{"name":"entryFee","type":"uint256"},{"name":"timeToComplete","type":"uint256"},{"name":"prize","type":"uint256"},{"name":"exists","type":"bool"}],"payable":false,"stateMutability":"view","type":"function","signature":"0x487bf905"},{"constant":true,"inputs":[],"name":"owner","outputs":[{"name":"","type":"address"}],"payable":false,"stateMutability":"view","type":"function","signature":"0x8da5cb5b"},{"constant":true,"inputs":[],"name":"admin","outputs":[{"name":"","type":"address"}],"payable":false,"stateMutability":"view","type":"function","signature":"0xf851a440"},{"constant":true,"inputs":[],"name":"token","outputs":[{"name":"","type":"address"}],"payable":false,"stateMutability":"view","type":"function","signature":"0xfc0c546a"},{"inputs":[{"name":"_admin","type":"address"},{"name":"_token","type":"address"}],"payable":false,"stateMutability":"nonpayable","type":"constructor","signature":"constructor"},{"anonymous":false,"inputs":[{"indexed":true,"name":"id","type":"bytes32"}],"name":"LogNewQuest","type":"event","signature":"0x06809877c9cf1ec1fd8430c60fda9db629d86f4ed619153f7f08dd798dc416cd"},{"anonymous":false,"inputs":[{"indexed":true,"name":"id","type":"bytes32"},{"indexed":true,"name":"user","type":"address"},{"indexed":true,"name":"payer","type":"address"}],"name":"LogPayForQuest","type":"event","signature":"0xa9842130ad9b2499cdf52013ef90cd5a1fb6fbe94d684822170d75bf04bf927e"},{"anonymous":false,"inputs":[{"indexed":true,"name":"id","type":"bytes32"},{"indexed":true,"name":"user","type":"address"}],"name":"LogSetQuestOutcome","type":"event","signature":"0x09d256a4751f55a6e85624a990d7b943e8db25776fd0d097c9669b6c47f62844"},{"constant":false,"inputs":[{"name":"id","type":"bytes32"},{"name":"entryFee","type":"uint256"},{"name":"timeToComplete","type":"uint256"},{"name":"prize","type":"uint256"}],"name":"addQuest","outputs":[{"name":"","type":"bool"}],"payable":false,"stateMutability":"nonpayable","type":"function","signature":"0xb18a5c58"},{"constant":false,"inputs":[{"name":"id","type":"bytes32"},{"name":"user","type":"address"}],"name":"payForQuest","outputs":[{"name":"","type":"bool"}],"payable":false,"stateMutability":"nonpayable","type":"function","signature":"0x7e5a78a2"},{"constant":false,"inputs":[{"name":"id","type":"bytes32"},{"name":"user","type":"address"},{"name":"outcome","type":"uint8"}],"name":"setQuestOutcome","outputs":[{"name":"","type":"bool"}],"payable":false,"stateMutability":"nonpayable","type":"function","signature":"0x6fc82f0b"}],"bytecode":"0x608060405234801561001057600080fd5b50604051604080610bd48339810180604052604081101561003057600080fd5b508051602090910151600160a060020a038116151561004e57600080fd5b60008054600160a060020a0319908116331790915560018054600160a060020a0393841690831617905560028054939092169216919091179055610b3d806100976000396000f3fe6080604052600436106100745763ffffffff60e060020a6000350416632bd4ace68114610079578063487bf905146100d45780636fc82f0b146101265780637e5a78a21461017c5780638da5cb5b146101b5578063b18a5c58146101e6578063f851a44014610222578063fc0c546a14610237575b600080fd5b34801561008557600080fd5b506100b26004803603604081101561009c57600080fd5b50600160a060020a03813516906020013561024c565b6040805193845260ff9092166020840152151582820152519081900360600190f35b3480156100e057600080fd5b506100fe600480360360208110156100f757600080fd5b503561027c565b6040805194855260208501939093528383019190915215156060830152519081900360800190f35b34801561013257600080fd5b506101686004803603606081101561014957600080fd5b508035906020810135600160a060020a0316906040013560ff166102a8565b604080519115158252519081900360200190f35b34801561018857600080fd5b506101686004803603604081101561019f57600080fd5b5080359060200135600160a060020a03166105d6565b3480156101c157600080fd5b506101ca610955565b60408051600160a060020a039092168252519081900360200190f35b3480156101f257600080fd5b506101686004803603608081101561020957600080fd5b5080359060208101359060408101359060600135610964565b34801561022e57600080fd5b506101ca610ae0565b34801561024357600080fd5b506101ca610aef565b60046020908152600092835260408084209091529082529020805460019091015460ff8082169161010090041683565b600360208190526000918252604090912080546001820154600283015492909301549092919060ff1684565b600254604080517f429b62e50000000000000000000000000000000000000000000000000000000081523360048201529051600092600160a060020a03169163429b62e5916024808301926020929190829003018186803b15801561030c57600080fd5b505afa158015610320573d6000803e3d6000fd5b505050506040513d602081101561033657600080fd5b5051151561034357600080fd5b600160a060020a0383166000908152600460209081526040808320878452909152902060010154610100900460ff16151561037d57600080fd5b60ff821660011480610392575060ff82166002145b151561039d57600080fd5b60ff8216600114156103f857600084815260036020908152604080832060010154600160a060020a0387168452600483528184208885529092529091205442916103ed919063ffffffff610afe16565b10156103f857600080fd5b600160a060020a038316600090815260046020908152604080832087845290915290206001015460ff161561042c57600080fd5b600160a060020a038316600090815260046020908152604080832087845290915290206001908101805460ff191660ff8516908117909155141561059957600154600254604080517ffa2af9da0000000000000000000000000000000000000000000000000000000081529051600160a060020a03938416936323b872dd93169163fa2af9da916004808301926020929190829003018186803b1580156104d257600080fd5b505afa1580156104e6573d6000803e3d6000fd5b505050506040513d60208110156104fc57600080fd5b5051600087815260036020908152604080832060020154815160e060020a63ffffffff8816028152600160a060020a039586166004820152948a166024860152604485015251606480850194929391928390030190829087803b15801561056257600080fd5b505af1158015610576573d6000803e3d6000fd5b505050506040513d602081101561058c57600080fd5b5051151561059957600080fd5b604051600160a060020a0384169085907f09d256a4751f55a6e85624a990d7b943e8db25776fd0d097c9669b6c47f6284490600090a39392505050565b60008281526003602081905260408220015460ff1615156105f657600080fd5b6000838152600360209081526040918290205460015483517f70a0823100000000000000000000000000000000000000000000000000000000815233600482015293519193600160a060020a03909116926370a0823192602480840193829003018186803b15801561066757600080fd5b505afa15801561067b573d6000803e3d6000fd5b505050506040513d602081101561069157600080fd5b50511080159061074257506000838152600360209081526040918290205460015483517fdd62ed3e00000000000000000000000000000000000000000000000000000000815233600482015230602482015293519193600160a060020a039091169263dd62ed3e92604480840193829003018186803b15801561071357600080fd5b505afa158015610727573d6000803e3d6000fd5b505050506040513d602081101561073d57600080fd5b505110155b151561074d57600080fd5b600160a060020a0382166000908152600460209081526040808320868452909152902060010154610100900460ff161561078657600080fd5b60408051606081018252428152600060208083018281526001848601818152600160a060020a03898116865260048086528887208c88528652958890209651875592519582018054915115156101000261ff001960ff90981660ff19909316929092179690961617909455925460025485517ffa2af9da0000000000000000000000000000000000000000000000000000000081529551918516956323b872dd95339592169363fa2af9da93828401939192909190829003018186803b15801561084f57600080fd5b505afa158015610863573d6000803e3d6000fd5b505050506040513d602081101561087957600080fd5b5051600087815260036020908152604080832054815160e060020a63ffffffff8916028152600160a060020a039687166004820152959094166024860152604485019390935291516064808501949192918390030190829087803b1580156108e057600080fd5b505af11580156108f4573d6000803e3d6000fd5b505050506040513d602081101561090a57600080fd5b5051151561091757600080fd5b6040513390600160a060020a0384169085907fa9842130ad9b2499cdf52013ef90cd5a1fb6fbe94d684822170d75bf04bf927e90600090a492915050565b600054600160a060020a031681565b600254604080517f429b62e50000000000000000000000000000000000000000000000000000000081523360048201529051600092600160a060020a03169163429b62e5916024808301926020929190829003018186803b1580156109c857600080fd5b505afa1580156109dc573d6000803e3d6000fd5b505050506040513d60208110156109f257600080fd5b505115156109ff57600080fd5b8415801590610a2157506000858152600360208190526040909120015460ff16155b1515610a2c57600080fd5b600084118015610a3c5750600083115b8015610a485750600082115b1515610a5357600080fd5b60408051608081018252858152602080820186815282840186815260016060850181815260008c815260039586905287812096518755935191860191909155905160028501555192909101805460ff191692151592909217909155905186917f06809877c9cf1ec1fd8430c60fda9db629d86f4ed619153f7f08dd798dc416cd91a2506001949350505050565b600254600160a060020a031681565b600154600160a060020a031681565b81810182811015610b0b57fe5b9291505056fea165627a7a7230582002628f727872a949cbb4fc78acb39f9932a82c4e52ea614065fb7c07973bd2f80029","source":"pragma solidity 0.5.0;\n\nimport \"./interfaces/IQuest.sol\";\nimport \"./libs/LibQuest.sol\";\n\nimport \"../admin/Admin.sol\";\n\nimport \"../token/ERC20.sol\";\n\nimport \"../utils/SafeMath.sol\";\n\ncontract Quest is\nIQuest,\nLibQuest {\n\n    using SafeMath for uint256;\n\n    // Owner of Quest contract\n    address public owner;\n    // DBET Token\n    ERC20 public token;\n    // Admin contract\n    Admin public admin;\n    // Quests mapping\n    mapping (bytes32 => Quest) public quests;\n    // User quest entries mapping\n    mapping (address => mapping (bytes32 => UserQuestEntry)) public userQuestEntries;\n\n    // On add new quest\n    event LogNewQuest(\n        bytes32 indexed id\n    );\n    // On pay for quest\n    event LogPayForQuest(\n        bytes32 indexed id,\n        address indexed user,\n        address indexed payer\n    );\n    // On set quest outcome\n    event LogSetQuestOutcome(\n        bytes32 indexed id,\n        address indexed user\n    );\n\n    constructor (\n        address _admin,\n        address _token\n    )\n    public {\n        require(_token != address(0));\n        owner = msg.sender;\n        token = ERC20(_token);\n        admin = Admin(_admin);\n    }\n\n    /**\n    * Allows an admin to add a quest\n    * @param id Unique quest ID\n    * @param entryFee Amount to pay in DBETs for quest entry\n    * @param timeToComplete Maximum time for user to complete quest\n    * @param prize Prize in DBETs to payout to winners\n    * @return Whether the quest was added\n    */\n    function addQuest(\n        bytes32 id,\n        uint256 entryFee,\n        uint256 timeToComplete,\n        uint256 prize\n    )\n    public\n    returns (bool) {\n        // Allow only admins to add quests\n        require(admin.admins(msg.sender));\n        // Id cannot be default bytes32 value and cannot already exist on-chain\n        require(\n            id != 0 &&\n            !quests[id].exists\n        );\n        // Check if uints are greater than 0\n        require(\n            entryFee > 0 &&\n            timeToComplete > 0 &&\n            prize > 0\n        );\n        // Add quest to contract\n        quests[id] = Quest({\n            entryFee: entryFee,\n            timeToComplete: timeToComplete,\n            prize: prize,\n            exists: true\n        });\n        // Emit new quest event\n        emit LogNewQuest(\n            id\n        );\n        return true;\n    }\n\n    /**\n    * Pays for a users' quest\n    * @param id Unique quest ID\n    * @param user User entering a quest\n    * @return Whether the quest was paid for\n    */\n    function payForQuest(\n        bytes32 id,\n        address user\n    ) public returns (bool) {\n        // Must be a valid quest ID\n        require(quests[id].exists);\n        // Balance of user must be greater or equal to quest entry fee\n        require(\n            (\n                token.balanceOf(msg.sender) >=\n                quests[id].entryFee\n            ) &&\n            (\n                token.allowance(\n                    msg.sender,\n                    address(this)\n                ) >=\n                quests[id].entryFee\n            )\n        );\n        // User cannot have already started quest\n        require(\n            !userQuestEntries[user][id].exists\n        );\n        // Add user quest entry\n        userQuestEntries[user][id] = UserQuestEntry({\n            entryTime: block.timestamp,\n            status: uint8(QuestStatus.STARTED),\n            exists: true\n        });\n        require(\n            token.transferFrom(\n                msg.sender,\n                admin.platformWallet(),\n                quests[id].entryFee\n            )\n        );\n        // Emit log pay for quest event\n        emit LogPayForQuest(\n            id,\n            user,\n            msg.sender\n        );\n    }\n\n    /**\n    * Allows the platform to set the quest outcome for a user playing a quest and pays out the user/Decent.bet\n    * @param id Unique quest ID\n    * @param user User playing quest\n    * @return Whether quest outcome was set\n    */\n    function setQuestOutcome(\n        bytes32 id,\n        address user,\n        uint8 outcome\n    ) public returns (bool) {\n        // Allow only admins to set quest outcomes\n        require(admin.admins(msg.sender));\n        // User quest entry must exist\n        require(\n            userQuestEntries[user][id].exists\n        );\n        // Must be a valid outcome\n        require(\n            outcome == uint8(QuestStatus.SUCCESS) ||\n            outcome == uint8(QuestStatus.FAILED)\n        );\n        // Outcome cannot be success if entry took longer than timeToComplete to complete\n        if(outcome == uint8(QuestStatus.SUCCESS))\n            require(\n                (userQuestEntries[user][id].entryTime).add(quests[id].timeToComplete) >=\n                block.timestamp\n            );\n        // User quest entry status must be started\n        require(\n            userQuestEntries[user][id].status == uint8(QuestStatus.STARTED)\n        );\n        // Update quest entry status\n        userQuestEntries[user][id].status = outcome;\n        // Pay out user if quest was successfully finished\n        if(outcome == uint8(QuestStatus.SUCCESS))\n            require(\n                token.transferFrom(\n                    admin.platformWallet(),\n                    user,\n                    quests[id].prize\n                )\n            );\n        emit LogSetQuestOutcome(\n            id,\n            user\n        );\n    }\n\n}\n","sourcePath":"/home/rogelio/Code/dbet/playdbet-contracts/contracts/quest/Quest.sol","compiler":{"name":"solc","version":"0.5.0+commit.1d4f565a.Emscripten.clang"},"schemaVersion":"3.0.2","updatedAt":"2019-03-06T13:53:45.897Z","devdoc":{"methods":{"addQuest(bytes32,uint256,uint256,uint256)":{"params":{"entryFee":"Amount to pay in DBETs for quest entry","id":"Unique quest ID","prize":"Prize in DBETs to payout to winners","timeToComplete":"Maximum time for user to complete quest"},"return":"Whether the quest was added"},"payForQuest(bytes32,address)":{"params":{"id":"Unique quest ID","user":"User entering a quest"},"return":"Whether the quest was paid for"},"setQuestOutcome(bytes32,address,uint8)":{"params":{"id":"Unique quest ID","user":"User playing quest"},"return":"Whether quest outcome was set"}}},"userdoc":{"methods":{"addQuest(bytes32,uint256,uint256,uint256)":{"notice":"Allows an admin to add a quest"},"payForQuest(bytes32,address)":{"notice":"Pays for a users' quest"},"setQuestOutcome(bytes32,address,uint8)":{"notice":"Allows the platform to set the quest outcome for a user playing a quest and pays out the user/Decent.bet"}}},"chain_tags":{"0xc7":{"address":"0x5AA189d3cCfcAd8422bb530160c0039414Ee5C0d"}}}