{"contractName":"Tournament","abi":[{"constant":true,"inputs":[],"name":"tournamentCount","outputs":[{"name":"","type":"uint256"}],"payable":false,"stateMutability":"view","type":"function","signature":"0x6e2b2c7c"},{"constant":true,"inputs":[],"name":"prizeTableCount","outputs":[{"name":"","type":"uint256"}],"payable":false,"stateMutability":"view","type":"function","signature":"0x7f606666"},{"constant":true,"inputs":[],"name":"owner","outputs":[{"name":"","type":"address"}],"payable":false,"stateMutability":"view","type":"function","signature":"0x8da5cb5b"},{"constant":true,"inputs":[],"name":"admin","outputs":[{"name":"","type":"address"}],"payable":false,"stateMutability":"view","type":"function","signature":"0xf851a440"},{"constant":true,"inputs":[],"name":"token","outputs":[{"name":"","type":"address"}],"payable":false,"stateMutability":"view","type":"function","signature":"0xfc0c546a"},{"inputs":[{"name":"_admin","type":"address"},{"name":"_token","type":"address"}],"payable":false,"stateMutability":"nonpayable","type":"constructor","signature":"constructor"},{"anonymous":false,"inputs":[{"indexed":true,"name":"id","type":"bytes32"},{"indexed":true,"name":"count","type":"uint256"}],"name":"LogNewPrizeTable","type":"event","signature":"0x01def64f7f3b9d1d5462857c37b202a7450786a4922c3d1dc29ee54efa765a25"},{"anonymous":false,"inputs":[{"indexed":true,"name":"id","type":"bytes32"},{"indexed":true,"name":"count","type":"uint256"}],"name":"LogNewTournament","type":"event","signature":"0x397d4a2fe9561dded5b33b9ef6341bb5b4d59518aecd13e6b575ffde48ac79ec"},{"anonymous":false,"inputs":[{"indexed":true,"name":"id","type":"bytes32"},{"indexed":true,"name":"participant","type":"address"}],"name":"LogEnteredTournament","type":"event","signature":"0x603014aa28a647ee5d7cfec1f7cb428a796a652f5d0d9d86f12e9eb5fc4fb467"},{"anonymous":false,"inputs":[{"indexed":true,"name":"id","type":"bytes32"},{"indexed":true,"name":"status","type":"uint8"}],"name":"LogCompletedTournament","type":"event","signature":"0xd61e00e0d2ae86e03c138a28a449a52725c37c152c6c654cf01414f126432a6a"},{"anonymous":false,"inputs":[{"indexed":true,"name":"id","type":"bytes32"},{"indexed":false,"name":"entryIndex","type":"uint256"},{"indexed":false,"name":"finalStanding","type":"uint256"},{"indexed":false,"name":"prizeFromTable","type":"uint256"},{"indexed":false,"name":"prizeMoney","type":"uint256"}],"name":"LogClaimedTournamentPrize","type":"event","signature":"0x88063a8d2ab7477c3378c03f860539bcea09c362ea763ce48222750919c08f33"},{"anonymous":false,"inputs":[{"indexed":true,"name":"id","type":"bytes32"},{"indexed":false,"name":"entryIndex","type":"uint256"}],"name":"LogRefundedTournamentEntry","type":"event","signature":"0xee416b1ab56f915dd10c5d167030769205efc15d146641e0e25a7f45794b9f34"},{"constant":false,"inputs":[{"name":"table","type":"uint256[]"}],"name":"createPrizeTable","outputs":[{"name":"","type":"bytes32"}],"payable":false,"stateMutability":"nonpayable","type":"function","signature":"0x05114bf9"},{"constant":false,"inputs":[{"name":"entryFee","type":"uint256"},{"name":"entryLimit","type":"uint256"},{"name":"minEntries","type":"uint256"},{"name":"maxEntries","type":"uint256"},{"name":"rakePercent","type":"uint256"},{"name":"prizeTable","type":"bytes32"}],"name":"createTournament","outputs":[{"name":"","type":"bytes32"}],"payable":false,"stateMutability":"nonpayable","type":"function","signature":"0x696d2c40"},{"constant":false,"inputs":[{"name":"id","type":"bytes32"}],"name":"enterTournament","outputs":[{"name":"","type":"bool"}],"payable":false,"stateMutability":"nonpayable","type":"function","signature":"0xf34e55de"},{"constant":false,"inputs":[{"name":"id","type":"bytes32"},{"name":"finalStandings","type":"uint256[][]"},{"name":"uniqueFinalStandings","type":"uint256"}],"name":"completeTournament","outputs":[{"name":"","type":"bool"}],"payable":false,"stateMutability":"nonpayable","type":"function","signature":"0x7a467a15"},{"constant":false,"inputs":[{"name":"id","type":"bytes32"},{"name":"entryIndex","type":"uint256"},{"name":"finalStandingIndex","type":"uint256"}],"name":"claimTournamentPrize","outputs":[{"name":"","type":"bool"}],"payable":false,"stateMutability":"nonpayable","type":"function","signature":"0x4f231b59"},{"constant":false,"inputs":[{"name":"id","type":"bytes32"},{"name":"finalStanding","type":"uint256"}],"name":"_calculatePrizeMoney","outputs":[{"name":"","type":"uint256"}],"payable":false,"stateMutability":"nonpayable","type":"function","signature":"0xdf18f873"},{"constant":false,"inputs":[{"name":"id","type":"bytes32"},{"name":"entryIndex","type":"uint256"}],"name":"claimTournamentRefund","outputs":[{"name":"","type":"bool"}],"payable":false,"stateMutability":"nonpayable","type":"function","signature":"0x8d44539f"},{"constant":true,"inputs":[{"name":"id","type":"bytes32"}],"name":"getRakeFee","outputs":[{"name":"","type":"uint256"}],"payable":false,"stateMutability":"view","type":"function","signature":"0x78fda683"},{"constant":true,"inputs":[{"name":"id","type":"bytes32"},{"name":"entryIndex","type":"uint256"}],"name":"getTournamentEntry","outputs":[{"components":[{"name":"_address","type":"address"},{"name":"finalStandings","type":"uint256[]"}],"name":"","type":"tuple"}],"payable":false,"stateMutability":"view","type":"function","signature":"0xf89e1878"},{"constant":true,"inputs":[{"name":"id","type":"bytes32"},{"name":"entryIndex","type":"uint256"},{"name":"finalStandingIndex","type":"uint256"}],"name":"getTournamentFinalStanding","outputs":[{"name":"","type":"uint256"}],"payable":false,"stateMutability":"view","type":"function","signature":"0x7023387b"},{"constant":true,"inputs":[{"name":"id","type":"bytes32"},{"name":"finalStanding","type":"uint256"}],"name":"getTournamentPrizeWinnersLength","outputs":[{"name":"","type":"uint256"}],"payable":false,"stateMutability":"view","type":"function","signature":"0xed2639c7"},{"constant":true,"inputs":[{"name":"id","type":"bytes32"},{"name":"finalStanding","type":"uint256"},{"name":"prizeWinnerIndex","type":"uint256"}],"name":"getTournamentPrizeWinnerAtIndex","outputs":[{"name":"","type":"uint256"}],"payable":false,"stateMutability":"view","type":"function","signature":"0xabead059"}],"bytecode":"0x60806040523480156200001157600080fd5b50604051604080620026d1833981018060405262000033919081019062000085565b60008054600160a060020a0319908116331790915560018054600160a060020a0394851690831617905560028054929093169116179055620000e3565b60006200007e8251620000d0565b9392505050565b600080604083850312156200009957600080fd5b6000620000a7858562000070565b9250506020620000ba8582860162000070565b9150509250929050565b600160a060020a031690565b6000620000dd82620000c4565b92915050565b6125de80620000f36000396000f3fe6080604052600436106100f05763ffffffff7c010000000000000000000000000000000000000000000000000000000060003504166305114bf981146100f55780634f231b591461012b578063696d2c40146101585780636e2b2c7c146101785780637023387b1461018d57806378fda683146101ad5780637a467a15146101cd5780637f606666146101ed5780638d44539f146102025780638da5cb5b14610222578063abead05914610244578063df18f87314610264578063ed2639c714610284578063f34e55de146102a4578063f851a440146102c4578063f89e1878146102e6578063fc0c546a14610313575b600080fd5b34801561010157600080fd5b50610115610110366004611bb6565b610328565b6040516101229190612308565b60405180910390f35b34801561013757600080fd5b5061014b610146366004611cc6565b6104ff565b60405161012291906122fa565b34801561016457600080fd5b50610115610173366004611d16565b610864565b34801561018457600080fd5b50610115610a9f565b34801561019957600080fd5b506101156101a8366004611cc6565b610aa5565b3480156101b957600080fd5b506101156101c8366004611c09565b610af5565b3480156101d957600080fd5b5061014b6101e8366004611c27565b610b4b565b3480156101f957600080fd5b50610115610fae565b34801561020e57600080fd5b5061014b61021d366004611c8c565b610fb4565b34801561022e57600080fd5b506102376111e8565b6040516101229190612272565b34801561025057600080fd5b5061011561025f366004611cc6565b6111f7565b34801561027057600080fd5b5061011561027f366004611c8c565b61121f565b34801561029057600080fd5b5061011561029f366004611c8c565b6113e7565b3480156102b057600080fd5b5061014b6102bf366004611c09565b611408565b3480156102d057600080fd5b506102d961186d565b6040516101229190612316565b3480156102f257600080fd5b50610306610301366004611c8c565b61187c565b60405161012291906124de565b34801561031f57600080fd5b506102d9611928565b6001546040517f429b62e5000000000000000000000000000000000000000000000000000000008152600091600160a060020a03169063429b62e590610372903390600401612280565b60206040518083038186803b15801561038a57600080fd5b505afa15801561039e573d6000803e3d6000fd5b505050506040513d601f19601f820116820180604052506103c29190810190611beb565b15156103ec5760405160e560020a62461bcd0281526004016103e3906124be565b60405180910390fd5b81516000106104105760405160e560020a62461bcd0281526004016103e390612354565b6000805b835181101561044f57610445848281518110151561042e57fe5b60209081029091010151839063ffffffff61193716565b9150600101610414565b50606481146104735760405160e560020a62461bcd0281526004016103e39061249e565b6000600554604051602001610488919061241f565b60408051601f1981840301815291815281516020928301206000818152600384529190912086519193506104c192909190870190611994565b50600580546001810190915560405182907f01def64f7f3b9d1d5462857c37b202a7450786a4922c3d1dc29ee54efa765a2590600090a35050919050565b600083815260046020526040812054151561052f5760405160e560020a62461bcd0281526004016103e39061243e565b6000848152600460205260409020600b015460ff166001146105665760405160e560020a62461bcd0281526004016103e390612364565b600084815260046020526040902060060180543391908590811061058657fe5b6000918252602090912060029091020154600160a060020a0316146105c05760405160e560020a62461bcd0281526004016103e390612384565b6000848152600460209081526040808320868452600901825280832085845290915290205460ff16156106085760405160e560020a62461bcd0281526004016103e3906123ff565b600084815260046020526040902060060180548391908590811061062857fe5b60009182526020909120600160029092020101541161065c5760405160e560020a62461bcd0281526004016103e39061247e565b600084815260046020526040812060060180548590811061067957fe5b90600052602060002090600202016001018381548110151561069757fe5b600091825260208083209091015487835260048252604080842060050154845260039092529120805491925090829081106106ce57fe5b60009182526020909120015415156106fb5760405160e560020a62461bcd0281526004016103e390612324565b6000610707868361121f565b6002546040517fa9059cbb000000000000000000000000000000000000000000000000000000008152919250600160a060020a03169063a9059cbb9061075390339085906004016122d1565b602060405180830381600087803b15801561076d57600080fd5b505af1158015610781573d6000803e3d6000fd5b505050506040513d601f19601f820116820180604052506107a59190810190611beb565b15156107c65760405160e560020a62461bcd0281526004016103e39061244e565b60008681526004602090815260408083208884526009810183528184208885528352818420805460ff1916600117905560050154835260039091529020805487917f88063a8d2ab7477c3378c03f860539bcea09c362ea763ce48222750919c08f3391889186918290811061083757fe5b90600052602060002001548560405161085394939291906124ef565b60405180910390a250509392505050565b6001546040517f429b62e5000000000000000000000000000000000000000000000000000000008152600091600160a060020a03169063429b62e5906108ae903390600401612280565b60206040518083038186803b1580156108c657600080fd5b505afa1580156108da573d6000803e3d6000fd5b505050506040513d601f19601f820116820180604052506108fe9190810190611beb565b151561091f5760405160e560020a62461bcd0281526004016103e3906124be565b600086116109425760405160e560020a62461bcd0281526004016103e39061246e565b600087116109655760405160e560020a62461bcd0281526004016103e3906124ce565b6000851180156109755750838511155b15156109965760405160e560020a62461bcd0281526004016103e39061245e565b6000831180156109a65750606483105b15156109c75760405160e560020a62461bcd0281526004016103e390612334565b6000828152600360205260408120805490919081106109e257fe5b60009182526020909120015415156109f957600080fd5b60008787878787600654604051602001610a1896959493929190612394565b60408051601f19818403018152828252805160209182012060008181526004928390529283208c815560018082018d9055600282018c9055600382018b905560058201899055920188905560068054928301905593509183917f397d4a2fe9561dded5b33b9ef6341bb5b4d59518aecd13e6b575ffde48ac79ec91a3509695505050505050565b60065481565b6000838152600460205260408120600601805484908110610ac257fe5b906000526020600020906002020160010182815481101515610ae057fe5b906000526020600020015490505b9392505050565b600081815260046020819052604082209081015460068201549154610b4592606492610b39929091610b2d919063ffffffff61194416565b9063ffffffff61194416565b9063ffffffff61196d16565b92915050565b6001546040517f429b62e5000000000000000000000000000000000000000000000000000000008152600091600160a060020a03169063429b62e590610b95903390600401612280565b60206040518083038186803b158015610bad57600080fd5b505afa158015610bc1573d6000803e3d6000fd5b505050506040513d601f19601f82011682018060405250610be59190810190611beb565b1515610c065760405160e560020a62461bcd0281526004016103e3906124be565b6000848152600460205260409020541515610c365760405160e560020a62461bcd0281526004016103e39061243e565b6000848152600460205260409020600b015460ff1615610c6b5760405160e560020a62461bcd0281526004016103e390612364565b600083511115610f5d5760008211610c985760405160e560020a62461bcd0281526004016103e390612374565b60005b600085815260046020526040902060060154811015610dae578381815181101515610cc257fe5b6020908102909101810151600087815260049092526040909120600601805483908110610ceb57fe5b90600052602060002090600202016001019080519060200190610d0f929190611994565b5060005b8482815181101515610d2157fe5b9060200190602002015151811015610da5576000868152600460205260408120865160079091019190879085908110610d5657fe5b9060200190602002015183815181101515610d6d57fe5b602090810290910181015182528181019290925260400160009081208054600181810183559183529290912090910183905501610d13565b50600101610c9b565b5060008481526004602081815260409283902060088101869055600b01805460ff19166001908117909155600254905484517ffa2af9da0000000000000000000000000000000000000000000000000000000081529451600160a060020a039283169563a9059cbb95939092169363fa2af9da9383810193919291829003018186803b158015610e3d57600080fd5b505afa158015610e51573d6000803e3d6000fd5b505050506040513d601f19601f82011682018060405250610e759190810190611b90565b610e7e87610af5565b6040518363ffffffff167c0100000000000000000000000000000000000000000000000000000000028152600401610eb79291906122ec565b602060405180830381600087803b158015610ed157600080fd5b505af1158015610ee5573d6000803e3d6000fd5b505050506040513d601f19601f82011682018060405250610f099190810190611beb565b1515610f2a5760405160e560020a62461bcd0281526004016103e39061244e565b60405160019085907fd61e00e0d2ae86e03c138a28a449a52725c37c152c6c654cf01414f126432a6a90600090a3610aee565b600084815260046020526040808220600b01805460ff191660029081179091559051909186917fd61e00e0d2ae86e03c138a28a449a52725c37c152c6c654cf01414f126432a6a9190a39392505050565b60055481565b6000828152600460205260408120541515610fe45760405160e560020a62461bcd0281526004016103e39061243e565b6000838152600460205260409020600b015460ff1660021461101b5760405160e560020a62461bcd0281526004016103e390612364565b600083815260046020526040902060060180543391908490811061103b57fe5b6000918252602090912060029091020154600160a060020a0316146110755760405160e560020a62461bcd0281526004016103e390612384565b6000838152600460209081526040808320858452600a0190915290205460ff16156110b55760405160e560020a62461bcd0281526004016103e390612344565b6002546000848152600460208190526040918290205491517fa9059cbb000000000000000000000000000000000000000000000000000000008152600160a060020a039093169263a9059cbb9261110e923392016122d1565b602060405180830381600087803b15801561112857600080fd5b505af115801561113c573d6000803e3d6000fd5b505050506040513d601f19601f820116820180604052506111609190810190611beb565b15156111815760405160e560020a62461bcd0281526004016103e39061244e565b6000838152600460209081526040808320858452600a0190915290819020805460ff191660011790555183907fee416b1ab56f915dd10c5d167030769205efc15d146641e0e25a7f45794b9f34906111da908590612308565b60405180910390a292915050565b600054600160a060020a031681565b60008381526004602090815260408083208584526007019091528120805483908110610ae057fe5b60008281526004602090815260408083208484526007019091528120548161127a61124986610af5565b6000878152600460205260409020805460069091015461126e9163ffffffff61194416565b9063ffffffff61198216565b60008681526004602090815260408083206005015483526003909152812080549293509091869081106112a957fe5b600091825260208083209091015488835260048252604080842060088101546005909101548552600390935283205490935082916103e891111561139f576000898152600460205260409020600801545b60008a815260046020908152604080832060050154835260039091529020548110156113735760008a815260046020908152604080832060050154835260039091529020805461136991908390811061134f57fe5b90600052602060002001548461193790919063ffffffff16565b92506001016112fa565b5061139c61138860648463ffffffff61198216565b610b3983610b2d868963ffffffff61194416565b91505b6113bf826113b3868463ffffffff61194416565b9063ffffffff61193716565b93506113da86610b3960648185818b8b63ffffffff61194416565b9998505050505050505050565b60009182526004602090815260408084209284526007909201905290205490565b60008181526004602052604081205415156114385760405160e560020a62461bcd0281526004016103e39061243e565b600082815260046020526040902060019081015411156114f3576000805b6000848152600460205260409020600601548110156114f057600084815260046020526040902060060180543391908390811061148f57fe5b6000918252602090912060029091020154600160a060020a031614156114e85760008481526004602052604090206001908101549201918211156114e85760405160e560020a62461bcd0281526004016103e3906124ae565b600101611456565b50505b6000828152600460205260409020600b015460ff16156115285760405160e560020a62461bcd0281526004016103e390612364565b6000828152600460205260409020600381015460069091015414156115625760405160e560020a62461bcd0281526004016103e39061248e565b6000828152600460208190526040918290205460025492517f70a082310000000000000000000000000000000000000000000000000000000081529092600160a060020a0316916370a08231916115bb91339101612280565b60206040518083038186803b1580156115d357600080fd5b505afa1580156115e7573d6000803e3d6000fd5b505050506040513d601f19601f8201168201806040525061160b9190810190611cf8565b101580156116c257506000828152600460208190526040918290205460025492517fdd62ed3e0000000000000000000000000000000000000000000000000000000081529092600160a060020a03169163dd62ed3e9161166f91339130910161228e565b60206040518083038186803b15801561168757600080fd5b505afa15801561169b573d6000803e3d6000fd5b505050506040513d601f19601f820116820180604052506116bf9190810190611cf8565b10155b15156116e35760405160e560020a62461bcd0281526004016103e39061240f565b6002546000838152600460208190526040918290205491517f23b872dd000000000000000000000000000000000000000000000000000000008152600160a060020a03909316926323b872dd9261173f923392309291016122a9565b602060405180830381600087803b15801561175957600080fd5b505af115801561176d573d6000803e3d6000fd5b505050506040513d601f19601f820116820180604052506117919190810190611beb565b15156117b25760405160e560020a62461bcd0281526004016103e39061244e565b600082815260046020908152604080832081518083019092523382526060828401818152600690920180546001808201808455928852968690208551600290920201805473ffffffffffffffffffffffffffffffffffffffff1916600160a060020a0390921691909117815592518051929691956118369392850192910190611994565b50506040513392508591507f603014aa28a647ee5d7cfec1f7cb428a796a652f5d0d9d86f12e9eb5fc4fb46790600090a350919050565b600154600160a060020a031681565b6118846119df565b60008381526004602052604090206006018054839081106118a157fe5b600091825260209182902060408051808201825260029093029091018054600160a060020a0316835260018101805483518187028101870190945280845293949193858301939283018282801561191757602002820191906000526020600020905b815481526020019060010190808311611903575b505050505081525050905092915050565b600254600160a060020a031681565b81810182811015610b4557fe5b600082151561195557506000610b45565b5081810281838281151561196557fe5b0414610b4557fe5b6000818381151561197a57fe5b049392505050565b60008282111561198e57fe5b50900390565b8280548282559060005260206000209081019282156119cf579160200282015b828111156119cf5782518255916020019190600101906119b4565b506119db9291506119f7565b5090565b60408051808201909152600081526060602082015290565b611a1191905b808211156119db57600081556001016119fd565b90565b6000610aee8251612576565b6000601f82018313611a3157600080fd5b8135611a44611a3f8261254b565b612524565b81815260209384019390925082018360005b83811015611a825781358601611a6c8882611a8c565b8452506020928301929190910190600101611a56565b5050505092915050565b6000601f82018313611a9d57600080fd5b8135611aab611a3f8261254b565b91508181835260208401935060208101905083856020840282011115611ad057600080fd5b60005b83811015611a825781611ae68882611b78565b8452506020928301929190910190600101611ad3565b6000601f82018313611b0d57600080fd5b8135611b1b611a3f8261254b565b91508181835260208401935060208101905083856020840282011115611b4057600080fd5b60005b83811015611a825781611b568882611b78565b8452506020928301929190910190600101611b43565b6000610aee8251612581565b6000610aee8235611a11565b6000610aee8251611a11565b600060208284031215611ba257600080fd5b6000611bae8484611a14565b949350505050565b600060208284031215611bc857600080fd5b813567ffffffffffffffff811115611bdf57600080fd5b611bae84828501611afc565b600060208284031215611bfd57600080fd5b6000611bae8484611b6c565b600060208284031215611c1b57600080fd5b6000611bae8484611b78565b600080600060608486031215611c3c57600080fd5b6000611c488686611b78565b935050602084013567ffffffffffffffff811115611c6557600080fd5b611c7186828701611a20565b9250506040611c8286828701611b78565b9150509250925092565b60008060408385031215611c9f57600080fd5b6000611cab8585611b78565b9250506020611cbc85828601611b78565b9150509250929050565b600080600060608486031215611cdb57600080fd5b6000611ce78686611b78565b9350506020611c7186828701611b78565b600060208284031215611d0a57600080fd5b6000611bae8484611b84565b60008060008060008060c08789031215611d2f57600080fd5b6000611d3b8989611b78565b9650506020611d4c89828a01611b78565b9550506040611d5d89828a01611b78565b9450506060611d6e89828a01611b78565b9350506080611d7f89828a01611b78565b92505060a0611d9089828a01611b78565b9150509295509295509295565b611da681612592565b82525050565b611da681612576565b6000611dc082612572565b808452602084019350611dd28361256c565b60005b82811015611e0257611de8868351611e15565b611df18261256c565b602096909601959150600101611dd5565b5093949350505050565b611da681612581565b611da681611a11565b611da681612599565b601981527f494e56414c49445f5052495a455f5441424c455f494e44455800000000000000602082015260400190565b601481527f494e56414c49445f52414b455f50455243454e54000000000000000000000000602082015260400190565b601781527f494e56414c49445f524546554e4445445f535441545553000000000000000000602082015260400190565b601381527f494e56414c49445f5052495a455f5441424c4500000000000000000000000000602082015260400190565b601981527f494e56414c49445f544f55524e414d454e545f53544154555300000000000000602082015260400190565b601e81527f494e56414c49445f554e495155455f46494e414c5f5354414e44494e47530000602082015260400190565b601381527f494e56414c49445f454e5452595f494e44455800000000000000000000000000602082015260400190565b600b81527f746f75726e616d656e745f000000000000000000000000000000000000000000602082015260400190565b601681527f494e56414c49445f434c41494d45445f53544154555300000000000000000000602082015260400190565b602281527f494e56414c49445f544f4b454e5f42414c414e43455f4f525f414c4c4f57414e60208201527f4345000000000000000000000000000000000000000000000000000000000000604082015260600190565b600c81527f7072697a655f7461626c655f0000000000000000000000000000000000000000602082015260400190565b601581527f494e56414c49445f544f55524e414d454e545f49440000000000000000000000602082015260400190565b601481527f544f4b454e5f5452414e534645525f4552524f52000000000000000000000000602082015260400190565b601581527f494e56414c49445f454e54524945535f52414e47450000000000000000000000602082015260400190565b601381527f494e56414c49445f454e5452595f4c494d495400000000000000000000000000602082015260400190565b601d81527f494e56414c49445f46494e414c5f5354414e44494e47535f494e444558000000602082015260400190565b601881527f4d41585f454e5452595f434f554e545f45584345454445440000000000000000602082015260400190565b601b81527f494e56414c49445f5052495a455f50455243454e545f544f54414c0000000000602082015260400190565b601481527f454e5452595f4c494d49545f4558434545444544000000000000000000000000602082015260400190565b600e81527f494e56414c49445f53454e444552000000000000000000000000000000000000602082015260400190565b601181527f494e56414c49445f454e5452595f464545000000000000000000000000000000602082015260400190565b805160009060408401906122518582611dac565b50602083015184820360208601526122698282611db5565b95945050505050565b60208101610b458284611dac565b60208101610b458284611d9d565b6040810161229c8285611d9d565b610aee6020830184611dac565b606081016122b78286611d9d565b6122c46020830185611dac565b611bae6040830184611e15565b604081016122df8285611d9d565b610aee6020830184611e15565b604081016122df8285611dac565b60208101610b458284611e0c565b60208101610b458284611e15565b60208101610b458284611e1e565b60208082528101610b4581611e27565b60208082528101610b4581611e57565b60208082528101610b4581611e87565b60208082528101610b4581611eb7565b60208082528101610b4581611ee7565b60208082528101610b4581611f17565b60208082528101610b4581611f47565b60e080825281016123a481611f77565b90506123b36020830189611e15565b6123c06040830188611e15565b6123cd6060830187611e15565b6123da6080830186611e15565b6123e760a0830185611e15565b6123f460c0830184611e15565b979650505050505050565b60208082528101610b4581611fa7565b60208082528101610b4581611fd7565b6040808252810161242f8161202d565b9050610b456020830184611e15565b60208082528101610b458161205d565b60208082528101610b458161208d565b60208082528101610b45816120bd565b60208082528101610b45816120ed565b60208082528101610b458161211d565b60208082528101610b458161214d565b60208082528101610b458161217d565b60208082528101610b45816121ad565b60208082528101610b45816121dd565b60208082528101610b458161220d565b60208082528101610aee818461223d565b608081016124fd8287611e15565b61250a6020830186611e15565b6125176040830185611e15565b6122696060830184611e15565b60405181810167ffffffffffffffff8111828210171561254357600080fd5b604052919050565b600067ffffffffffffffff82111561256257600080fd5b5060209081020190565b60200190565b5190565b6000610b4582612586565b151590565b600160a060020a031690565b6000610b45825b6000610b458261257656fea265627a7a72305820dd86a8509e2acdd4143f1362b165ba5a8dd6330eb28f4c7b39a0fb0fdbf9d20f6c6578706572696d656e74616cf50037","source":"pragma solidity 0.5.0;\npragma experimental ABIEncoderV2;\n\nimport \"./interfaces/ITournament.sol\";\nimport \"./libs/LibTournament.sol\";\n\nimport \"../admin/Admin.sol\";\n\nimport \"../token/ERC20.sol\";\n\nimport \"../utils/SafeMath.sol\";\n\ncontract Tournament is\nITournament,\nLibTournament {\n\n    using SafeMath for uint256;\n\n    // Owner of the tournament contract\n    address public owner;\n    // Admin contract\n    Admin public admin;\n    // Token contract\n    ERC20 public token;\n\n    // Prize table mapping\n    mapping (bytes32 => uint256[]) prizeTables;\n    // Tournaments mapping\n    mapping (bytes32 => Tournament) tournaments;\n    // Prize table count\n    uint256 public prizeTableCount;\n    // Tournament count\n    uint256 public tournamentCount;\n\n    // Log new prize table\n    event LogNewPrizeTable(\n        bytes32 indexed id,\n        uint256 indexed count\n    );\n    // Log new tournament\n    event LogNewTournament(\n        bytes32 indexed id,\n        uint256 indexed count\n    );\n    // Log entered tournament\n    event LogEnteredTournament(\n        bytes32 indexed id,\n        address indexed participant\n    );\n    // Log completed tournament\n    event LogCompletedTournament(\n        bytes32 indexed id,\n        uint8 indexed status\n    );\n    // Log claimed tournament prize\n    event LogClaimedTournamentPrize(\n        bytes32 indexed id,\n        uint256 entryIndex,\n        uint256 finalStanding,\n        uint256 prizeFromTable,\n        uint256 prizeMoney\n    );\n    // Log refunded tournament entry\n    event LogRefundedTournamentEntry(\n        bytes32 indexed id,\n        uint256 entryIndex\n    );\n\n    constructor (\n        address _admin,\n        address _token\n    )\n    public {\n        owner = msg.sender;\n        admin = Admin(_admin);\n        token = ERC20(_token);\n    }\n\n    /**\n    * Creates a prize table that can be used for a tournament\n    * @param table Array of integers representing redeemable prize money for each position represented by indices in the array\n    * @return Unique ID of the prize table\n    */\n    function createPrizeTable(\n        uint256[] memory table\n    ) public returns (bytes32) {\n        // Sender must be an admin\n        require(\n            admin.admins(msg.sender),\n            \"INVALID_SENDER\"\n        );\n        // Prize table must have more than one prize value\n        require(\n            table.length > 0,\n            \"INVALID_PRIZE_TABLE\"\n        );\n        uint256 totalPrizePercent = 0;\n        for (uint256 i = 0; i < table.length; i++) {\n            totalPrizePercent = totalPrizePercent.add(table[i]);\n        }\n        // Total percentage of prizes in prize table must be 100\n        require(\n            totalPrizePercent == 100,\n            \"INVALID_PRIZE_PERCENT_TOTAL\"\n        );\n        bytes32 id = keccak256(\n            abi.encode(\n                \"prize_table_\",\n                prizeTableCount\n            )\n        );\n        prizeTables[id] = table;\n        emit LogNewPrizeTable(\n            id,\n            prizeTableCount++\n        );\n    }\n\n    /**\n    * Creates a tournament that users can enter\n    * @param entryFee Fee to enter the tournament\n    * @param entryLimit Entry limit for each unique address\n    * @param minEntries The minimum number of entries for the tournament\n    * @param maxEntries The maximum number of entries for the tournament\n    * @param rakePercent Percentage of the prize pool retained by Decent.bet\n    * @param prizeTable Unique ID of prize table to be used for the tournament\n    * @return Unique ID of the created tournament\n    */\n    function createTournament(\n        uint256 entryFee,\n        uint256 entryLimit,\n        uint256 minEntries,\n        uint256 maxEntries,\n        uint256 rakePercent,\n        bytes32 prizeTable\n    ) public returns (bytes32) {\n        // Creator must be an admin\n        require(\n            admin.admins(msg.sender),\n            \"INVALID_SENDER\"\n        );\n        // Entry limit must be greater than 0\n        require(\n            entryLimit > 0,\n            \"INVALID_ENTRY_LIMIT\"\n        );\n        // Entry fee must be greater than 0\n        require(\n            entryFee > 0,\n            \"INVALID_ENTRY_FEE\"\n        );\n        // Min entries must be greater than 0 and less than or equal to max entries\n        require(\n            minEntries > 0 &&\n            minEntries <= maxEntries,\n            \"INVALID_ENTRIES_RANGE\"\n        );\n        // Rake percent must be greater than 0 and less than 100\n        require(\n            rakePercent > 0 &&\n            rakePercent < 100,\n            \"INVALID_RAKE_PERCENT\"\n        );\n        // Must be a valid prize table\n        require(prizeTables[prizeTable][0] != 0);\n        bytes32 id = keccak256(\n            abi.encode(\n                \"tournament_\",\n                entryFee,\n                entryLimit,\n                minEntries,\n                maxEntries,\n                rakePercent,\n                tournamentCount\n            )\n        );\n\n        // Assign params\n        tournaments[id].entryFee = entryFee;\n        tournaments[id].entryLimit = entryLimit;\n        tournaments[id].minEntries = minEntries;\n        tournaments[id].maxEntries = maxEntries;\n        tournaments[id].prizeTable = prizeTable;\n        tournaments[id].rakePercent = rakePercent;\n\n        // Emit log new tournament event\n        emit LogNewTournament(\n            id,\n            tournamentCount++\n        );\n    }\n\n    /**\n    * Allows users to enter a tournament by paying the listed entry fee\n    * @param id Unique ID of the tournament\n    */\n    function enterTournament(\n        bytes32 id\n    ) public returns (bool) {\n        // Must be a valid tournament\n        require(\n            tournaments[id].entryFee != 0,\n            \"INVALID_TOURNAMENT_ID\"\n        );\n        // Cannot have already entered the tournament if entryLimit is false\n        if(tournaments[id].entryLimit > 1) {\n            uint256 entryCount = 0;\n            for (uint256 i = 0; i < tournaments[id].entries.length; i++) {\n                if(tournaments[id].entries[i]._address == msg.sender) {\n                    require(\n                        ++entryCount <= tournaments[id].entryLimit,\n                        \"ENTRY_LIMIT_EXCEEDED\"\n                    );\n                }\n            }\n        }\n        // Tournament cannot have been completed\n        require(\n            tournaments[id].status == uint8(TournamentStatus.ACTIVE),\n            \"INVALID_TOURNAMENT_STATUS\"\n        );\n        // Cannot be over max entry count\n        require(\n            tournaments[id].entries.length !=\n            tournaments[id].maxEntries,\n            \"MAX_ENTRY_COUNT_EXCEEDED\"\n        );\n        // Must have a balance and allowance >= entryFee\n        require(\n            token.balanceOf(msg.sender) >= tournaments[id].entryFee &&\n            token.allowance(msg.sender, address(this)) >= tournaments[id].entryFee,\n            \"INVALID_TOKEN_BALANCE_OR_ALLOWANCE\"\n        );\n        // Transfer tokens to contract\n        require(\n            token.transferFrom(\n                msg.sender,\n                address(this),\n                tournaments[id].entryFee\n            ),\n            \"TOKEN_TRANSFER_ERROR\"\n        );\n        uint256[] memory finalStandings;\n        // Add to tournament\n        tournaments[id].entries.push(TournamentEntry({\n            _address: msg.sender,\n            finalStandings: finalStandings\n        }));\n        // Emit log entered tournament event\n        emit LogEnteredTournament(\n            id,\n            msg.sender\n        );\n    }\n\n    /**\n    * Allows the admin to complete the tournament by publishing the final standings\n    * @param id Unique ID of the tournament\n    * @param finalStandings Final standings for entries in the tournament. 1d index => entry index, 2d => final standings for entry index\n    * @param uniqueFinalStandings Number of unique positions in the final standing array\n    * @return Whether the tournament was completed\n    */\n    function completeTournament(\n        bytes32 id,\n        uint256[][] memory finalStandings,\n        uint256 uniqueFinalStandings\n    ) public returns (bool) {\n        // Sender must be an admin\n        require(\n            admin.admins(msg.sender),\n            \"INVALID_SENDER\"\n        );\n        // Must be a valid tournament\n        require(\n            tournaments[id].entryFee != 0,\n            \"INVALID_TOURNAMENT_ID\"\n        );\n        // Tournament cannot have been completed\n        require(\n            tournaments[id].status == uint8(TournamentStatus.ACTIVE),\n            \"INVALID_TOURNAMENT_STATUS\"\n        );\n        if(finalStandings.length > 0) {\n            // Unique final standings must be greater than 0\n            require(\n                uniqueFinalStandings > 0,\n                \"INVALID_UNIQUE_FINAL_STANDINGS\"\n            );\n            // Tournament successfully completed\n            // Set finalStandings for the tournament\n            for (uint256 i = 0; i < tournaments[id].entries.length; i++) {\n                tournaments[id].entries[i].finalStandings = finalStandings[i];\n                for (uint256 j = 0; j < finalStandings[i].length; j++) {\n                    // i => index 1, j => index 2\n                    // Push entry index to prizes mapping in tournament\n                    tournaments[id].prizes[finalStandings[i][j]].push(i);\n                }\n            }\n            // Set unique final standings\n            tournaments[id].uniqueFinalStandings = uniqueFinalStandings;\n            // Set tournament status to completed\n            tournaments[id].status = uint8(TournamentStatus.COMPLETED);\n            // Transfer tournament rake fee to platform wallet\n            require(\n                token.transfer(\n                    admin.platformWallet(),\n                    getRakeFee(id)\n                ),\n                \"TOKEN_TRANSFER_ERROR\"\n            );\n            // Emit log completed tournament event\n            emit LogCompletedTournament(\n                id,\n                uint8(TournamentStatus.COMPLETED)\n            );\n        } else {\n            // Tournament has ended unsuccessfully, allow users to claim refunds\n            // Set tournament status to failed\n            tournaments[id].status = uint8(TournamentStatus.FAILED);\n            // Emit log completed tournament event\n            emit LogCompletedTournament(\n                id,\n                uint8(TournamentStatus.FAILED)\n            );\n        }\n    }\n\n    /**\n    * Allows users to claim their tournament prizes\n    * @param id Unique ID of the tournament\n    * @param entryIndex Index in the tournaments' entries\n    * @param finalStandingIndex Index in the tournaments' entries final standings\n    * @return Whether the tournament prize was claimed\n    */\n    function claimTournamentPrize(\n        bytes32 id,\n        uint256 entryIndex,\n        uint256 finalStandingIndex\n    ) public returns (bool) {\n        // Must be a valid tournament\n        require(\n            tournaments[id].entryFee != 0,\n            \"INVALID_TOURNAMENT_ID\"\n        );\n        // Tournament should have been completed\n        require(\n            tournaments[id].status == uint8(TournamentStatus.COMPLETED),\n            \"INVALID_TOURNAMENT_STATUS\"\n        );\n        // Address at final standings index must be sender\n        require(\n            tournaments[id].entries[entryIndex]._address == msg.sender,\n            \"INVALID_ENTRY_INDEX\"\n        );\n        // User cannot have already claimed their prize\n        require(\n            !tournaments[id].claimed[entryIndex][finalStandingIndex],\n            \"INVALID_CLAIMED_STATUS\"\n        );\n        require(\n            tournaments[id].entries[entryIndex].finalStandings.length >\n            finalStandingIndex,\n            \"INVALID_FINAL_STANDINGS_INDEX\"\n        );\n        uint256 finalStanding =\n            tournaments[id]\n            .entries[entryIndex]\n            .finalStandings[finalStandingIndex];\n        // Prize table must have a valid prize at final standings index\n        require(\n            prizeTables\n            [tournaments[id].prizeTable]\n            [finalStanding] != 0,\n            \"INVALID_PRIZE_TABLE_INDEX\"\n        );\n        uint256 prizeMoney = _calculatePrizeMoney(\n            id,\n            finalStanding\n        );\n        // Transfer prize tokens to sender\n        require(\n            token.transfer(\n                msg.sender,\n                prizeMoney\n            ),\n            \"TOKEN_TRANSFER_ERROR\"\n        );\n        // Mark prize as claimed\n        tournaments[id].claimed[entryIndex][finalStandingIndex] = true;\n        // Emit log claimed tournament prize event\n        emit LogClaimedTournamentPrize(\n            id,\n            entryIndex,\n            finalStanding,\n            prizeTables[tournaments[id].prizeTable][finalStanding],\n            prizeMoney\n        );\n    }\n\n    /**\n    * Calculates prize money for a provided final standing position in a given prize table id\n    * @param id Prize table ID\n    * @param finalStanding Final standing position\n    * @return Prize money for a final standing position\n    */\n    function _calculatePrizeMoney(\n        bytes32 id,\n        uint256 finalStanding\n    )\n    public\n    returns (uint256) {\n        // Check for other winners with same final standing\n        uint256 sharedFinalStandings =\n            tournaments[id].prizes[finalStanding].length;\n        // Calculate prize pool\n        uint256 prizePool =\n            (tournaments[id].entries.length\n            .mul(tournaments[id].entryFee))\n            .sub(getRakeFee(id));\n        uint256 prizePercent =\n            (prizeTables[tournaments[id].prizeTable][finalStanding]);\n        uint256 prizeMoney;\n        uint256 excessPrizePercent;\n        uint256 multiplier = 1000;\n        // If the amount of prize winners is greater than the number of unique final standings,\n        // split excess token % split among all addresses in final standings\n        if(\n            prizeTables[tournaments[id].prizeTable].length >\n            tournaments[id].uniqueFinalStandings\n        ) {\n            for(\n                uint256 i = tournaments[id].uniqueFinalStandings;\n                i < prizeTables[tournaments[id].prizeTable].length;\n                i++\n            ) {\n                excessPrizePercent = excessPrizePercent.add(prizeTables[tournaments[id].prizeTable][i]);\n            }\n            excessPrizePercent =\n                excessPrizePercent\n                    .mul(prizePercent)\n                    .mul(multiplier)\n                    .div(\n                        uint256(100)\n                        .sub(excessPrizePercent)\n                    );\n        }\n        prizePercent = prizePercent.mul(multiplier).add(excessPrizePercent);\n        // Transfer prize percent of total prize money divided by the number of winners for the same final standing index\n        return prizePool\n            .mul(prizePercent)\n            .div(multiplier)\n            .div(100)\n            .div(sharedFinalStandings);\n    }\n\n    /**\n    * Allows users to claim refunds for tournaments that were not completed\n    * @param id Unique tournament ID\n    * @param entryIndex Entries index in the tournament's entries array\n    * @return Whether entry fees were refunded for tournament entry\n    */\n    function claimTournamentRefund(\n        bytes32 id,\n        uint256 entryIndex\n    )\n    public\n    returns (bool) {\n        // Must be a valid tournament\n        require(\n            tournaments[id].entryFee != 0,\n            \"INVALID_TOURNAMENT_ID\"\n        );\n        // Tournament should have a failed status\n        require(\n            tournaments[id].status == uint8(TournamentStatus.FAILED),\n            \"INVALID_TOURNAMENT_STATUS\"\n        );\n        // Address at entries entryIndex must be sender\n        require(\n            tournaments[id].entries[entryIndex]._address == msg.sender,\n            \"INVALID_ENTRY_INDEX\"\n        );\n        // User cannot have already claimed their refund\n        require(\n            !tournaments[id].refunded[entryIndex],\n            \"INVALID_REFUNDED_STATUS\"\n        );\n        // Transfer entry fee to sender\n        require(\n            token.transfer(\n                msg.sender,\n                tournaments[id].entryFee\n            ),\n            \"TOKEN_TRANSFER_ERROR\"\n        );\n        // Mark entry as refunded\n        tournaments[id].refunded[entryIndex] = true;\n        emit LogRefundedTournamentEntry(\n            id,\n            entryIndex\n        );\n    }\n\n    /**\n    * Returns rake fee for a tournament\n    * @param id Unique tournament ID\n    * @return tournament rake fee\n    */\n    function getRakeFee(\n        bytes32 id\n    )\n    public\n    view\n    returns (uint256) {\n        return (tournaments[id].entryFee)\n            .mul(tournaments[id].entries.length)\n            .mul(tournaments[id].rakePercent)\n            .div(100);\n    }\n\n    /**\n    * Returns an entry address at a tournament entries index\n    * @param id Unique tournament ID\n    * @param entryIndex Tournament entry index\n    * @return Tournament entry at index\n    */\n    function getTournamentEntry(\n        bytes32 id,\n        uint256 entryIndex\n    )\n    public\n    view\n    returns (TournamentEntry memory) {\n        return tournaments[id].entries[entryIndex];\n    }\n\n    /**\n    * Returns a final standing for a tournament\n    * @param id Unique tournament ID\n    * @param entryIndex Tournament entry index\n    * @param finalStandingIndex Tournament entry final standing index\n    * @return Tournament final standing at index\n    */\n    function getTournamentFinalStanding(\n        bytes32 id,\n        uint256 entryIndex,\n        uint256 finalStandingIndex\n    )\n    public\n    view\n    returns (uint256) {\n        return tournaments[id]\n                .entries[entryIndex]\n                .finalStandings[finalStandingIndex];\n    }\n\n    /**\n    * Returns the number of tournament prize winners for a provided final standing position\n    * @param id Unique tournament ID\n    * @param finalStanding Tournament final standing position\n    */\n    function getTournamentPrizeWinnersLength(\n        bytes32 id,\n        uint256 finalStanding\n    )\n    public\n    view\n    returns (uint256) {\n        return tournaments[id]\n                .prizes[finalStanding]\n                .length;\n    }\n\n    /**\n    * Returns a tournament prize winner at a provided final standing and prize winner index\n    * @param id Unique tournament ID\n    * @param finalStanding Tournament final standing position\n    * @param prizeWinnerIndex Index of prize winner in tournaments' prizes array\n    */\n    function getTournamentPrizeWinnerAtIndex(\n        bytes32 id,\n        uint256 finalStanding,\n        uint256 prizeWinnerIndex\n    )\n    public\n    view\n    returns (uint256) {\n        return tournaments[id]\n                .prizes[finalStanding]\n                [prizeWinnerIndex];\n    }\n\n}","sourcePath":"/home/rogelio/Code/dbet/playdbet-contracts/contracts/tournament/Tournament.sol","compiler":{"name":"solc","version":"0.5.0+commit.1d4f565a.Emscripten.clang"},"schemaVersion":"3.0.2","updatedAt":"2019-03-06T13:53:45.921Z","devdoc":{"methods":{"_calculatePrizeMoney(bytes32,uint256)":{"params":{"finalStanding":"Final standing position","id":"Prize table ID"},"return":"Prize money for a final standing position"},"claimTournamentPrize(bytes32,uint256,uint256)":{"params":{"entryIndex":"Index in the tournaments' entries","finalStandingIndex":"Index in the tournaments' entries final standings","id":"Unique ID of the tournament"},"return":"Whether the tournament prize was claimed"},"claimTournamentRefund(bytes32,uint256)":{"params":{"entryIndex":"Entries index in the tournament's entries array","id":"Unique tournament ID"},"return":"Whether entry fees were refunded for tournament entry"},"completeTournament(bytes32,uint256[][],uint256)":{"params":{"finalStandings":"Final standings for entries in the tournament. 1d index => entry index, 2d => final standings for entry index","id":"Unique ID of the tournament","uniqueFinalStandings":"Number of unique positions in the final standing array"},"return":"Whether the tournament was completed"},"createPrizeTable(uint256[])":{"params":{"table":"Array of integers representing redeemable prize money for each position represented by indices in the array"},"return":"Unique ID of the prize table"},"createTournament(uint256,uint256,uint256,uint256,uint256,bytes32)":{"params":{"entryFee":"Fee to enter the tournament","entryLimit":"Entry limit for each unique address","maxEntries":"The maximum number of entries for the tournament","minEntries":"The minimum number of entries for the tournament","prizeTable":"Unique ID of prize table to be used for the tournament","rakePercent":"Percentage of the prize pool retained by Decent.bet"},"return":"Unique ID of the created tournament"},"enterTournament(bytes32)":{"params":{"id":"Unique ID of the tournament"}},"getRakeFee(bytes32)":{"params":{"id":"Unique tournament ID"},"return":"tournament rake fee"},"getTournamentEntry(bytes32,uint256)":{"params":{"entryIndex":"Tournament entry index","id":"Unique tournament ID"},"return":"Tournament entry at index"},"getTournamentFinalStanding(bytes32,uint256,uint256)":{"params":{"entryIndex":"Tournament entry index","finalStandingIndex":"Tournament entry final standing index","id":"Unique tournament ID"},"return":"Tournament final standing at index"},"getTournamentPrizeWinnerAtIndex(bytes32,uint256,uint256)":{"params":{"finalStanding":"Tournament final standing position","id":"Unique tournament ID","prizeWinnerIndex":"Index of prize winner in tournaments' prizes array"}},"getTournamentPrizeWinnersLength(bytes32,uint256)":{"params":{"finalStanding":"Tournament final standing position","id":"Unique tournament ID"}}}},"userdoc":{"methods":{"_calculatePrizeMoney(bytes32,uint256)":{"notice":"Calculates prize money for a provided final standing position in a given prize table id"},"claimTournamentPrize(bytes32,uint256,uint256)":{"notice":"Allows users to claim their tournament prizes"},"claimTournamentRefund(bytes32,uint256)":{"notice":"Allows users to claim refunds for tournaments that were not completed"},"completeTournament(bytes32,uint256[][],uint256)":{"notice":"Allows the admin to complete the tournament by publishing the final standings"},"createPrizeTable(uint256[])":{"notice":"Creates a prize table that can be used for a tournament"},"createTournament(uint256,uint256,uint256,uint256,uint256,bytes32)":{"notice":"Creates a tournament that users can enter"},"enterTournament(bytes32)":{"notice":"Allows users to enter a tournament by paying the listed entry fee"},"getRakeFee(bytes32)":{"notice":"Returns rake fee for a tournament"},"getTournamentEntry(bytes32,uint256)":{"notice":"Returns an entry address at a tournament entries index"},"getTournamentFinalStanding(bytes32,uint256,uint256)":{"notice":"Returns a final standing for a tournament"},"getTournamentPrizeWinnerAtIndex(bytes32,uint256,uint256)":{"notice":"Returns a tournament prize winner at a provided final standing and prize winner index"},"getTournamentPrizeWinnersLength(bytes32,uint256)":{"notice":"Returns the number of tournament prize winners for a provided final standing position"}}},"chain_tags":{"0xc7":{"address":"0x92495D319C7B8c81ebE634808e647926899eE820"}}}